:100000000C9481010C94511C0C949E010C949E0143
:100010000C949E010C949E010C949E010C949E01E4
:100020000C949E010C949E010C9479210C944D2209
:100030000C94D01A0C949E010C949E010C949E0179
:100040000C949E010C949E010C949E010C949E01B4
:100050000C949E010C94731B0C949E010C949E01B5
:100060000C949E010C949E010C949E010C949E0194
:100070000C949E010C949E010C949E010C949E0184
:100080000C949E010C949E010C949E010C949E0174
:100090000C949E010C949E010C949E010C949E0164
:1000A0000C949E010C949E010C949E0129001E004C
:1000B0001F002000210022002B0014001A0008005D
:1000C00015001700390004001600070009000A0097
:1000D000E1001D001B0006001900050000002D00B6
:1000E0002E002F0030004C0000002A004C00E200DF
:1000F000E000E300230024002500260027004A003A
:100100001C0018000C001200130031000B000D0041
:100110000E000F003341340011001000360037008C
:100120003800E50000415000510052004F0000002F
:100130004E00E400E60028002C000000007C0000D7
:10014000AC00AE00AB0000000100A900B600CD007D
:10015000B700D9000100AA00CF00CE00D000DA001D
:1001600000003A003B003C003D00000000003E0063
:100170003F0040004100007C0000D100D20001009F
:1001800001000100BD005F00600061000000007C14
:10019000BE005C005D005E00560001005700590083
:1001A0005A005B00540001005500850062006300A6
:1001B000580001004A00420043004400450000008E
:1001C0004D0001002A240100010000001403440036
:1001D00061006300740079006C002000430043005C
:1001E00000000E036D006A006F0068006E0073006F
:1001F00000000403090409023B00020100A0FA09FF
:100200000400000103010100092111010001224441
:100210000007058103080001090401000103000033
:1002200000092111010001227B0007058203200043
:100230000112010002000000084E440714000101F1
:1002400002000105010902A10185020901A10005C1
:100250000919012908150025019508750181020574
:1002600001093009311581257F950275088106093C
:10027000381581257F950175088106050C0A38021D
:100280001581257F950175088106C0C0050109808B
:10029000A101850319012AB700150126B7009501B0
:1002A00075108100C0050C0901A101850419012AFE
:1002B000A002150126A002950175108100C005015C
:1002C0000906A101050719E029E715002501950890
:1002D000750181029501750881010507190029FF43
:1002E000150026FF009506750881000508190129EB
:1002F000051500250195057501910295017503917C
:1003000001C011241FBECFEFDAE0DEBFCDBF11E088
:10031000A0E0B1E0E8E2FAE402C005900D92A23B51
:10032000B107D9F722E0A2EBB1E001C01D92AB3CCE
:10033000B207E1F70E945A130C94D3240C940000E6
:100340008230B8F46C30A8F4463098F450E096E06F
:10035000699F400D511D1124FA0198E4899FE00D19
:10036000F11D1124EE0FFF1FE455FF4F859194916D
:10037000089581E090E008950E94A001089581E031
:1003800008950E94BF01089581E008950E94BF0171
:1003900008950E94C601089508950E94CC01089511
:1003A000A6E0B0E0E6EDF1E00C942F2449835A83F7
:1003B0009E833091B90189819A8131111AC03E81A1
:1003C000332399F0222389F00E948607182F682F83
:1003D00089819A810E94620769817A81812F0E94B6
:1003E000630E2696E3E00C944B240E947407182FAA
:1003F000F3CF0E94860769817A81F1CFFC01262F15
:100400004081518162817381848195810E94D001F4
:100410000895CF93DF93EC0161E00E94FE01BE01DD
:100420000E94C101DF91CF910895CF93DF93EC013A
:1004300060E00E94FE01BE010E94CD01DF91CF91DC
:10044000089521E030E0A90102C0440F551F8A95AC
:10045000E2F7CA010E9484060895CF93C82F81E075
:1004600090E00C2E02C0880F991F0A94E2F70E94B8
:10047000C20B8C2F0E942102CF91089581E0089534
:100480000E943E020895CF93C82F0E9437068C2FFA
:100490000E9440022FEF84E39CE021508040904076
:1004A000E1F700C00000CF91089581E00E9443026F
:1004B0000E94971B089580E00E9443020E94A81B9F
:1004C00008950F931F93CF93DF938C0161E00E94F7
:1004D000FE01EC01B8010E94C901811106C080E053
:1004E000DF91CF911F910F910895B801CE010E9425
:1004F000E7188823A1F3B801CE010E9423158823B1
:1005000071F3B801CE010E94F914882341F3B801B8
:10051000CE010E94A70F882311F3F801858188235B
:1005200061F0C330FCE7DF07E9F058F4C115ECE7F0
:10053000DE07A9F0C130DC47B9F0C8010E94C40150
:10054000CFCFCB358CE7D807A9F0CC35ECE7DE0769
:1005500071F0CA35DC4789F70E949D0BEECF0E94EF
:100560005502BDCF0E94A50B0E945B02B8CF0E942E
:10057000930BE3CF0E94A10BE0CF0E94AD1A0E9423
:10058000DD0208950E94E1020E94B21A089581E0FE
:1005900008950895CF93DF93D82F0E94C702C82FE4
:1005A000882319F08D2F0E94C9028C2FDF91CF91E3
:1005B000089508950E94CA02089580E00E94DA0218
:1005C00008950E9430190E94DA020895CF930E9484
:1005D0003019C82F8091B4018C1779F0C093B40101
:1005E0000E943C1B6093B5017093B6018093B701E4
:1005F0009093B8018C2F0E94DA02CF910895ADE05C
:10060000B0E0E5E0F3E00C943024488759876A872E
:100610007B878C879D8791110E94D30A1F8286E079
:10062000FE013896DE01119601900D928A95E1F750
:100630008D8181110DC029813A814B815C816D8151
:100640007E818F810E941D0A2D96E2E00C944C243D
:10065000CE0101960E9409028111EDCFF5CFFC0178
:100660002481213021F4808191810E94B80708956E
:10067000662329F00E9484160E94571708950E944D
:10068000DE16FACFCF93C82F8823C1F08CEF8C0FE2
:10069000813AB0F48C2F0E94261481110FC08C2F48
:1006A0000E94BC19882329F08C2F0E94FF190E94F8
:1006B000420B8C2F0E94F7190E94420BCF91089594
:1006C00080E28C0F883048F4C77081E001C0880F49
:1006D000CA95EAF70E94B60AEFCFEBE5EC0FE330DC
:1006E00040F4F0E0E959FE4F808190E00E945D19EE
:1006F000E5CFE8E5EC0FEB3150F4F0E0EE0FFF1F33
:10070000EF5CFE4F808191810E948219D7CF83E3F5
:100710008C0F833198F661E08C2F0E943803CECF86
:10072000882381F19CEF980F913A28F40E94FF19D9
:100730000E94420B089590E2980F983050F4877011
:1007400091E001C0990F8A95EAF7892F0E94BC0AAF
:10075000EFCF9BE5980F933028F490E080E00E9463
:100760005D19089598E5980F9B3128F490E080E09A
:100770000E948219089593E3980F933118F460E072
:100780000E94380308951F93CF93DF93182FEB0136
:100790000E944203209739F4812F0E949003DF9139
:1007A000CF911F9108958FE99FE00197F1F700C065
:1007B00000002197EFCF70E060E0893311F460E52D
:1007C00070E00E94C3030895882321F00E94B60AB6
:1007D0000E94420B0895882321F00E94BC0A0E94C7
:1007E000420B0895B0E0A0E0E8EFF3E00C94292478
:1007F0006C01D62FC72FFC011581068102950F7061
:100800000E94AC0AE82E8823F9F0E12E1123E1F0D2
:100810008C2F807F803461F080E28D0F883008F16A
:100820008C2F807E803221F4D230D8F00023C9F0A2
:1008300080919B0282FF15C082E00E94670B0E949C
:10084000AC0A91E0E82EE926BC2EB2949FE0B922D2
:10085000FBE0FB15B8F1EB2DF0E0EB52FB4D0C94F7
:100860001A24E12CF1CF0C2F0F70C07F11F00295EC
:10087000007F112399F0002359F080E28D0F88301A
:1008800010F0D11107C0802F0E94B60A0E94420BBF
:100890008D2F5AC0802F0E94C60AF8CF8D2F0E943C
:1008A0009003002379F080E28D0F883010F0D11191
:1008B00004C0802F0E94BC0A03C0802F0E94CC0A73
:1008C0000E94420BEB2DE850FF0B349720F40E945E
:1008D00030190E94DA02EE2089F00E94A80A80FDF9
:1008E0000DC0F60115820E94A20A0E94C006C60130
:1008F0000E94FE050E94A20A0E94D006CDB7DEB774
:10090000E9E00C9445242C2F2F70F22EC07FC032CA
:1009100019F0F29480EFF822DD2341F0D130D1F1CB
:10092000112309F444C00023F1F0B2CF80919B025F
:1009300082FD15C0112359F0FF2029F08F2D0E9450
:10094000B60A0E94420B80E00E944203BBCF80E0C7
:100950000E949003FF2009F4B5CF8F2DABCF112358
:1009600069F0011104C08F2D0E94E403ABCF013068
:1009700009F0A8CF8F2D0E94EA0AA4CF0111A2CFBF
:100980008F2D0E94EB038F2D0E94F60A8F2D0E945F
:10099000DA0A98CF112321F0063008F093CFE3CF85
:1009A000053008F08FCF8F2D0E94EB038BCF0023F3
:1009B000D1F3D93349F43FEF87EE93E031508040D3
:1009C0009040E1F700C000008D2F0E9490037ACF85
:1009D0008C2F86958695837069F0813009F072CFEF
:1009E0008D2F9C2F9370111102C080E090E00E9427
:1009F000821968CF8D2F9C2F9370111102C080E057
:100A000090E00E945D195ECF612F8D2F0E94380308
:100A100059CF8C2F8370A1F5111154CF4D2F4295D2
:100A200046954770440F440F2D2F2F7030E0042E51
:100A300002C0220F331F0A94E2F790E080E0D4FF57
:100A400009C08FE090E002C0880F991F4A95E2F735
:100A500080959095C695C695C370822B932BC23016
:100A600049F058F4C13019F00E9490062BCF0E9433
:100A7000870628CF0E94990625CF0E94840622CFA0
:100A80008695112311F08C2F8170882309F41ACFD9
:100A90004D2F429546954770440F440F2D2F2F70D0
:100AA00030E0042E02C0220F331F0A94E2F790E0D8
:100AB00080E0D4FF09C08FE090E002C0880F991F4A
:100AC0004A95E2F780959095C695C695C370822B9E
:100AD000932BC23049F058F4C13019F00E94FB0644
:100AE000F1CE0E94F206EECE0E940407EBCE0E94E9
:100AF000A806E8CECF70112329F08C2F0E94C006E3
:100B00008D2F32CF8D2F0E94EB038C2F0E94D006A9
:100B1000D9CED23F41F160F4D03FB9F0D13F81F05E
:100B2000112309F443C00111B3CE8C2F8F711FC064
:100B3000D33F01F1D43FA1F780919B0282FD24C0F5
:100B40008C2F8F71112311F312C0112341F0053046
:100B500008F0B8CE8C2F8F710E94E206B3CE06301B
:100B600008F0B0CEF7CF8C2F8F711111CFCF0E942C
:100B7000C006A8CE112329F08C2F8F710E94B406D5
:100B8000A1CE0E94AF069ECE112331F063E08C2FE0
:100B90008F710E94490B96CE81E00E94670B023054
:100BA00008F490CE82E00E94670B8CCE002359F0AF
:100BB000D93309F009CFEFEFF7EE23E0E150F04031
:100BC0002040E1F7FFCE8C2F8F71A0CF0F931F93A2
:100BD000CF93DF93EC01688179818D810E94C307F7
:100BE0008C010E940D070E948306B801CE010E946D
:100BF000F203DF91CF911F910F910895CF93DF936F
:100C0000EC018C81882399F0CE010E946102811150
:100C100011C00E94AC0A882351F08D81882339F0DD
:100C200080919B0282FF03C082E00E94670BDF91EC
:100C3000CF910895CE010E94E605CE010E941502D3
:100C4000F6CF90E080E00E945D1990E080E00E9485
:100C500082190E94D30A0E94420B0E9473170E94BD
:100C6000571708950E94071A0E94210608950E94AE
:100C7000C30A0E943206089592959F70963091F0B3
:100C800058F4925F9F70923058F4803F19F030F41E
:100C9000883E30F481E008959A5FF4CF843FD1F329
:100CA00080E00895883EB0F3813FD1F7F3CFFC0197
:100CB0002481222339F0808191810E94B8070E940B
:100CC0003C06089580E00895A6E0B0E0EAE6F6E08C
:100CD0000C9430242696E2E00C944C24A7E0B0E07B
:100CE000E4E7F6E00C9430242796E2E00C944C24E0
:100CF00008950E94780608950E9479069093E10174
:100D00008093E001089508950E947C060895209143
:100D1000E0013091E101822B932B0E947C06089523
:100D20002091E0013091E101822393230E947C060F
:100D300008952091E0013091E101822793270E94DC
:100D40007C0608950E94780608950E94A2060895E0
:100D50000E94A5069093DF018093DE01089590E044
:100D600080E00E94A806089521E030E0A90102C0B9
:100D7000440F551F8A95E2F7CA010E94A8060895FC
:100D800021E030E002C0220F331F8A95E2F7809104
:100D9000DE019091DF01822B932B0E94A80608951B
:100DA00021E030E002C0220F331F8A95E2F7209540
:100DB00030958091DE019091DF01822393230E9480
:100DC000A806089521E030E002C0220F331F8A9563
:100DD000E2F78091DE019091DF01822793270E9444
:100DE000A80608952091DE013091DF01822B932B1C
:100DF0000E94A80608952091DE013091DF01822330
:100E000093230E94A80608952091DE013091DF010E
:100E1000822793270E94A80608950895262F2770F9
:100E200091E001C0990F2A95EAF723E0769567953E
:100E30002A95E1F7660F771F660F771FFA01E60F15
:100E4000F71F50E040E0682F70E08191DF011197BB
:100E50009B01042E02C0369527950A94E2F7217073
:100E600021952827292328272C934F5F5F4F443053
:100E7000510559F70895A82FA77023E096958795F7
:100E80002A95E1F7880F991F880F991FFB01E80F3A
:100E9000F91F50E040E080E0219130E00A2E02C0CE
:100EA000369527950A94E2F721703327042E01C066
:100EB000220F0A94EAF7822B4F5F5F4F44305105AF
:100EC00059F70895262F9C3070F4863060F4682F0F
:100ED00070E086E0989F600D711D11244AEB51E08F
:100EE000822F0E940E070895292F9C3068F48630C7
:100EF00058F490E06AEB71E036E0239F800D911D7D
:100F000011240E943B07089580E00895B0E0A0E01E
:100F1000ECE8F7E00C9429247C010091DE011091AB
:100F2000DF018091E0019091E101082B192BCFE0C6
:100F3000D0E0CC24C394D12CBC2EC6010C2E02C010
:100F4000880F991F0A94E2F780239123892B49F493
:100F5000219790F7B12C8B2DCDB7DEB7E9E00C943B
:100F60004524B7018C2F0E946F0E019789F3F3CFB0
:100F7000CF93DF93EC010E948607BE010E946F0EA3
:100F8000DF91CF9108951F93CF93DF93EB01909161
:100F9000B901992339F0CB010E94B807DF91CF91B5
:100FA0001F910895882369F0CB010E948607182FAE
:100FB000682FCE010E946207BE01812F0E946F0E32
:100FC000EDCFCB010E947407182FF6CF1F93CF935C
:100FD000DF93C091E20117E08091E3018C1304C01C
:100FE000DF91CF911F910895D0E01C9FF0011D9FCC
:100FF000F00D1124EC51FE4F20813181428153814B
:101000006481758186810E946E062196C770E4CF47
:1010100020911C0230911D0240911E0250911F022E
:101020006091200270912102809122020E946E063E
:101030000895CF93DF9380912202807F09F04DC005
:1010400080912102882309F448C0E091E201509187
:10105000E301C0911D02D0911C0260911E027091AB
:101060001F0247E05E17C9F18E2F90E0E49FF00168
:101070001124EC51FE4F2481222391F1489FF0016D
:10108000499FF00D1124DF01AC51BE4F11962C91F8
:1010900011972C1325C02C912D1322C015962C913D
:1010A000159721111DC012962D913C91261B370BCF
:1010B000283C3105A8F4809122028F7080618093D2
:1010C0002202E651FE4F80818F70806180838CE127
:1010D00092E00E94FE050E94E607DF91CF910895FD
:1010E000FC013196E770BECF482F2091E20190912C
:1010F000E30157E0291302C080E0089530E0529FD9
:10110000F001539FF00D1124EC51FE4F81816813C3
:1011100006C08081481303C085818111EECF2F5F07
:101120003F4F2770E7CFA4E1B0E0E9E9F8E00C9485
:1011300026248C0186E0F801DE011F9601900D92B5
:101140008A95E1F7F8018481E5809CE1A92E92E07F
:10115000B92E9091200291111FC08823D1F0EE206A
:10116000A9F0C8010E945706F82E882379F087E07D
:10117000F801D50101900D928A95E1F7C5010E9411
:101180002F030E9419080E9408085FC0C8010E942E
:10119000FE05FF24F39459C0C080D18082809380E3
:1011A000F090210220911E0230911F02A401421BE7
:1011B000530BFF2009F4F9C0483C510508F0A7C0C3
:1011C000882309F442C090911D0280912202282FA9
:1011D000207F09F05CC09D1116C090911C02C912BD
:1011E00012C0E1104EC08F708061809322020E9475
:1011F00008088CE192E00E94FE0580912202F8012D
:101200008683F12C22C0E1103CC06D2D8C2D0E94F4
:1012100074086D2D8C2D0E947408E82E8111F1CF79
:10122000CF86D88A8F8598890E94B807292F229562
:101230002F70243078F49F702230A8F09923B9F0F1
:10124000F8019681907F99F4FE2C8F2D6496ECE046
:101250000C9442242A5F2F70223068F0C8010E944B
:10126000FE05EF2CF1CF992311F0882369F3805EFE
:10127000883050F3F3CF803F38F3815F833070F7CD
:10128000E3CF80912202816080932202BACF9D1128
:1012900013C090911C02C9120FC0E1100DC08683CB
:1012A000C8010E94FE0587E0F801ACE1B2E00190C0
:1012B0000D928A95E1F767CFC8010E9457068823EF
:1012C00009F464CFEE2009F461CF809122028032CC
:1012D00088F020911C0230911D02398728879B8657
:1012E0008A86909120029C871D868E87CE01089663
:1012F0000E94FE0587E0F801ACE1B2E001900D929A
:101300008A95E1F70E9419080E94080842CF90913F
:101310002202292F207FA1F4682D9A8A898AA601AA
:101320007A899E2D0E9464068CE192E00E94FE055F
:1013300087E0F50111928A95E9F70E94080861CFCC
:10134000882309F482CF80911D028D1110C08091F5
:101350001C02C8120CC0E1100AC09683C8010E948A
:10136000FE0587E0F50111928A95E9F76ECFC80175
:101370000E945706882309F409CFEE2009F406CF0E
:1013800080912202803208F4B5CF20911C02309166
:101390001D023A8329839C828B82909120029D8337
:1013A0001E828F83CE010196A3CF483C5105B8F52C
:1013B000882309F4EECEFE2CEE2009F4E7CE8091CE
:1013C0001D028D111EC080911C02C8121AC080918E
:1013D000220280FD0DC0982F907F51F08683903FB0
:1013E00009F45ECF982F907F905F8F70892B57CF35
:1013F00087E0F801ACE1B2E001900D928A95E1F747
:1014000024CFC8010E945706811174CF8091220217
:10141000816080932202C8010E94FE0516CF682DCC
:101420009A8A898AA6017A899E2D0E94640687E09D
:10143000F50111928A95E9F7A6CEAEE0B0E0E3E2BD
:10144000FAE00C942F24288739874A875B876C87BA
:101450007D878E87CE0108960E9493088823B1F07D
:101460006C85662341F0288539854A855B857D85B5
:101470008E850E946E0617E08091E2019091E30153
:1014800089133DC02E96E3E00C944B2487E0FE01C7
:101490003896DE01119601900D928A95E1F78C85C0
:1014A000882349F32091E30130E0C9010196877058
:1014B00099274091E2014817190699F097E0929F09
:1014C000D001939FB00D1124AC51BE4FFE01319657
:1014D00001900D929A95E1F78093E3010E94E6074F
:1014E000CACF0E9437061092E3011092E20187E012
:1014F000ECE1F2E0DF011D928A95E9F7BCCF819F14
:10150000C00111248C519E4F0E949308882309F436
:10151000B9CFE091E2011E9FF0011124EC51FE4F82
:1015200020813181428153816481758186810E944D
:101530006E068091E20190E0019687709927809372
:10154000E2019ACF80912B02869586958695089523
:1015500080912B028770089590912B02977081E003
:1015600009F480E008958091370208959091370240
:10157000892B8093370208958095909137029823A4
:101580009093370208951092370208959091360291
:10159000892B809336020895809590913602982386
:1015A00090933602089510923602089508950E948D
:1015B000D60A089590912C02292F282331F0809586
:1015C000892380932C020E94D70A089508950E94CF
:1015D000E60A089590912D02292F2823281729F033
:1015E000982B90932D020E94E70A089590912D0266
:1015F000292F282331F08095892380932D020E9482
:10160000E70A089580912D02882329F010922D0277
:1016100080E00E94E70A08950F931F93CF93DF9312
:101620000091000110910101C091370280913602B2
:10163000C82B80912D02882331F0C82B0E94A71956
:1016400081110E94020BF801C083C0910001D0916A
:10165000010148E050E063E272E0CE010E946B2499
:10166000892B59F088E0FE01A3E2B2E001900D92CF
:101670008A95E1F7CE010E944419DF91CF911F9125
:101680000F9108950E940C0B089508950E94450B38
:10169000089590919B0292FF11C098E0899F90015C
:1016A0001124622B60932B020E94C00680912B02B2
:1016B0008695869586950E94460B08950E94C006E1
:1016C000089510922B0280E00E94460B089590919D
:1016D0002B028095892380932B02282F277069F491
:1016E000891759F090919B0292FF07C086958695C5
:1016F00086950E94D0060E94610B089590919B02EE
:1017000092FB222720F9281769F080FB92F9909329
:101710009B0280919A0290919B020E94CD0B82E0E5
:101720000E94670B089580919B0282FB882780F9B5
:1017300091E089270E947E0B089581E00E947E0B34
:10174000089580E00E947E0B08956FEF7FEF90E098
:1017500080E00E94BD24089590E080E00E948924EA
:1017600021E0853E9E4F09F020E0822F089582E01F
:1017700090E00E948124089583E090E00E948124FB
:1017800090E00895682F83E090E00E949F240895E0
:1017900084E090E00E9489240895BC0184E090E0F8
:1017A0000E94BD240895AB01BC018FE090E00E942F
:1017B000B1240895AB01BC0183E190E00E94B12403
:1017C000089560E070E0CB010E94DA0B089560E0BC
:1017D00070E0CB010E94D30B0E94E10B0895A8E0BA
:1017E000B0E0E5EFFBE00C94302465EE7EEF90E096
:1017F00080E00E94BD2460E082E090E00E949F248F
:1018000081E090E09093E1018093E0010E94C20B9F
:1018100060E074E184E090E00E94BD2460E086E036
:1018200090E00E949F2460E087E090E00E949F2467
:1018300040E050E0BA0188E090E00E94B12460E00E
:1018400083E290E00E949F2460E08CE090E00E94A0
:101850009F2460E08DE090E00E949F2419821A820C
:101860001B821C821D821E821F82188648E050E067
:1018700067E170E0CE0101960E948F2440E050E0C5
:10188000BA018FE190E00E94B1240E94E70B2896F4
:10189000E2E00C944C240E94EF0B0895682F8EE038
:1018A00090E00E949F240895A6E0B0E0EAE5FCE005
:1018B0000C942E240E94301B8C0180913802909150
:1018C00039028017910781F019821A820E94301B19
:1018D000682F49815A81792F80E090E00E94FF02B1
:1018E00010933902009338022696E4E00C944A24BF
:1018F0000E948B0F60934A0270934B0280934C02BC
:1019000090934D0260934602709347028093480281
:10191000909349020895089508950E948B0C0895AC
:1019200008950E94900C089581E0089585EA9FE053
:101930000E946F130E948C0C0E948D0C08950E94CF
:101940006E110895089508950E94A20C0E94A30CA0
:1019500008950E94AC0B811102C00E944B0C0E94A2
:10196000B70B80934E020E94C80B90939B0280930A
:101970009A020E9492130E94BC0B0E9484068091DE
:10198000DE019091DF010E94A50608950E94271BA9
:101990000E94650F0E9474110E94C5100E94A90C3C
:1019A0000E94D9020E94E1140E9486110E94910CAB
:1019B0000895A6E0B0E0EFEDFCE00C9427240E942F
:1019C000940C81110CC00E94540C0E946E110E9454
:1019D00095170E94E6022696EBE00C9443240E94A1
:1019E000E8108AE3A82E82E0B82E750110E0F70116
:1019F00001917F01812F0E94C10F1F5F1C3009F4EC
:101A000041C00817A1F380914E0281FD0E94C70FCB
:101A10000E949F0CC82E10E099249394812F0E945D
:101A2000C10F082FF50181915F01081729F1F12CF1
:101A3000EE24E394D02ED8268D2D8E21A9F0CC2033
:101A400099F0F9821A830E94301B9C838B839D82BC
:101A500091E0802F8E2109F490E049815A816B81B9
:101A60007C818D810E94FF02F394EE0CF6E0FF1260
:101A7000E3CFF501319700831F5F1C3079F60E9498
:101A8000780CA3CF0813BFCF9ECF1F93CF93DF93C4
:101A90000E94740EEC01C11580E5D807F0F5C11560
:101AA00080E4D80708F09CC0C03ED10520F5CD3CAD
:101AB000D10508F082C0C83AD10578F4C53AD105FD
:101AC00008F073C0C130D10519F1209709F1C43075
:101AD000D105F0F4D0E0C0E01BC0C33CD105D0F785
:101AE000C85AD0E0CC0FDD1FC659DE4F0990D8810F
:101AF000C02DD4640DC0C11580E2D80708F0D1C054
:101B0000C11581E0D80708F05AC0C83ED10510F7CA
:101B1000CE01DF91CF911F910895C03682E5D8079D
:101B200018F5C03482E5D80708F06BC0C03282E5F2
:101B3000D80708F05FC0C11582E5D80708F497C040
:101B40002C2F2695269580E2289F900111248C2F1A
:101B50008370C1E0D0E002C0CC0FDD1F8A95E2F7B0
:101B6000C22BD32BDD68D4CFC03A82E5D80760F40E
:101B7000C03882E5D80708F459C0CF71D0E0DC2F17
:101B8000CC27C46FD06AC4CFC03C82E5D80708F424
:101B900062C0C03E82E5D80708F09CCFDC2FCC277E
:101BA000CC27DF71C06FD06AB3CFC55AD0E0C05622
:101BB000DE4FC881D0E0D064ABCFD065A9CF8D2FE8
:101BC0000E94160F182FCE0199270E94740EC12F64
:101BD000D0E0DC2FCC27CC27DF71C82BD92B98CFB6
:101BE000CE0199270E94740ECC27DF70C82BD92B09
:101BF000D06A8ECFCF71D0E0DC2FCC27C16FD06AF6
:101C000087CF2C2F26952695277080E2289F90015C
:101C100011248C2F8370C1E0D0E002C0CC0FDD1FF7
:101C20008A95E2F7C22BD32BDC6872CF2C2F269536
:101C30002695277080E2289F900111248C2F8370B5
:101C4000C1E0D0E002C0CC0FDD1F8A95E2F7C22BC5
:101C5000D32BDA685DCF8C2F8F710E94160FC82F9F
:101C6000D0E0DC2FCC27CC27DF71D06251CF8C2F76
:101C70008F710E94160F55E0D695C7955A95E1F7DA
:101C8000CF70D0E0DC2FCC27282F30E084FF05C0B8
:101C900044E0220F331F4A95E1F7C22BD32BD069C2
:101CA00037CF8D2F8F710E94160F182FCE019927D5
:101CB0000E94740EC12FD0E0DC2FCC27CC27DF711F
:101CC000C82BD92BD2CF462F7C3030F4663020F48D
:101CD000672F0E94BC01089590E080E008950E9463
:101CE000630E0E94450D089582389105B9F1B0F454
:101CF0008133910509F47DC048F48932910509F4D6
:101D00006DC08A32910509F47BC008958533910531
:101D100009F45FC08933910509F10895833E910567
:101D2000D9F138F4803E910529F1823E910579F18F
:101D30000895863E9105D9F1873E910509F43EC08C
:101D4000843E910541F520919B0221FF24C08091A2
:101D50009A0284FD19C087EE90E0089520919A02BE
:101D6000237009F05AC020919B0223FF14C089E21E
:101D700090E0089520919A0220FD38C030919B0296
:101D800030FF09C024FF43C090E080E00895209117
:101D90009A0222FDF7CF089520919A0222FD3AC0BF
:101DA00030919B0230FD39C024FFF5CFEDCF20915B
:101DB0009A0223FFF0CF24FDE7CFCDCF20919A02E6
:101DC00023FD2EC030919B0231FFEECF84EE90E0D8
:101DD000089520919A0225FFDECFC9CF20919A0263
:101DE00025FD21C020919B0223FFD5CF89E390E000
:101DF000D2CF20919A0226FFCECF8AE290E00895BA
:101E000020919A0226FFC7CF81E390E0089583EEE8
:101E100090E0089582EE90E0089580EE90E00895BD
:101E200086EE90E0089585E390E0089590919A02FF
:101E300092FF10C041E0282F2471243009F040E0C7
:101E400031E0282F2871283009F030E0431711F0D5
:101E50002CE0822793FF10C041E0282F2471243109
:101E600009F040E031E0282F2871283109F030E0F6
:101E7000431711F02CE0822730919B0230FF10C0F5
:101E800051E0282F2171213009F050E041E0282F46
:101E90002871283009F040E0541711F029E082271A
:101EA00031FF10C041E0282F2171213109F040E0BD
:101EB00031E0282F2871283109F030E0431711F064
:101EC00029E0822794FD877E089510929C0210924B
:101ED0009D0210929E0210929F020895CF92DF926F
:101EE000EF92FF926B017C010E946E1181110EC076
:101EF0000E943C1BC61AD70AE80AF90AC0929C0243
:101F0000D0929D02E0929E02F0929F02FF90EF908D
:101F1000DF90CF9008950F931F930E946E11882336
:101F200029F00E943C1B1F910F9108950E943C1BB9
:101F300000919C0210919D0220919E0230919F027F
:101F4000600F711F821F931FEECF80E00895CF9323
:101F50009C01205E3245C1E02032310538F4FB019E
:101F6000C581C11103C08F710E942D028C2FCF91AA
:101F7000089508950E94B90F089508950E94BD0F15
:101F80000895E82FF0E0E355FD4F8081089508950E
:101F900080EA8A95F1F7089500C008950E94C80F5D
:101FA000089508950E94D10F0895A6E0B0E0EBEDEA
:101FB000FFE00C942C240E946E11F82E6091B9025F
:101FC000882309F440C086E0E82E8E010F5F1F4F82
:101FD000F8018E2D11928A95E9F7862F90E0B801CD
:101FE00083559D4F0E9494118823B9F08091A002DF
:101FF00090E046E050E0B80183559D4F0E946B246D
:1020000021E020934F02892B91F4F12C0E94BE0F06
:102010008F2D2696E6E00C94482480914F02882369
:10202000A1F3F8011192EA94E9F710924F02A091FE
:10203000A002B0E0A355BD4F86E0F80101900D92DB
:102040008A95E1F7E3CF70E063557D4F8091A00260
:1020500090E083559D4F0E941B120E94D20FD8CF53
:10206000F894E82FE295EF70F0E031A1282F2F705F
:1020700081E090E001C0880F2A95EAF7982F9095AB
:10208000932391A392A1892B82A3789408950F930F
:102090001F93CF93DF93C9EAD1E089918F3F11F06D
:1020A0000E94301081E0CF3AD807B9F7C3EAD1E0F7
:1020B00009EA11E089918F3F11F00E9430100C174E
:1020C0001D07C1F7DF91CF911F910F910895B0E0E7
:1020D000A0E0EDE6F0E10C942A24EC01D62E062FC8
:1020E00010E0C80187559E4F7C01FC0180818F3F25
:1020F00009F444C0F894E82FE295EF70F0E091A164
:102100008F7021E030E001C0220F8A95EAF7892F15
:10211000822B81A382A12095282322A378940E9458
:10212000CC0FE3EAF1E031E0C12C21912F3F59F1CE
:10213000A22FA295AF70B0E090968C9190E02F7096
:1021400002C0959587952A95E2F780FD1CC0832FE4
:10215000C82A330F81E0E93AF80739F7F70180819F
:102160008F3F11F00E94301061E0C11001C060E0AB
:102170008D2D0E94CE0FC00FD11FC882CDB7DEB704
:10218000E8E00C94462480E0E3CF80910201809146
:10219000020196E0811190E09093B90286E0891BDC
:1021A0008093A0020E9447108CE0EDEAF2E0DF018C
:1021B000982F1D929A95E9F7E1EAF2E0DF011D926E
:1021C0008A95E9F786E00E9426110E94BA0F0895C9
:1021D000ACE0B0E0EEEEF0E10C942D248E010F5F48
:1021E0001F4F8CE0F80111928A95E9F7F12C6F2DC1
:1021F000C8010E946710F394F6E0FF12F8CF4CE09C
:1022000050E0B80181EA92E00E946B2421E000973F
:1022100009F420E0892B41F08CE0F801A1EAB2E05A
:1022200001900D928A95E1F76091B90270E06355D3
:102230007D4F46E081EA92E00E942711182F0E940C
:10224000D50F812B2C96E5E00C9449240895B0E03D
:10225000A0E0EDE2F1E10C942A246C017B01042F53
:10226000C22F222379F081E0809352020E94301B1A
:10227000909351028093500280E0CDB7DEB7E8E042
:102280000C944624D0915202DD23B1F38091500288
:10229000909151020E94481B059770F310E0A8012D
:1022A000B601C7010E946B24892B31F0A801B60149
:1022B000C7010E947824CD2F109252028C2FDDCFBF
:1022C000CF930E94F923C82F811102C00E94F423EA
:1022D0008C2FCF91089580915602089580915502D8
:1022E00008950E946E1108950E9460118093550216
:1022F0000E947111809356020E946B11809302011B
:102300000E946E1181110E94CA1108950E946E11DF
:10231000811102C00E94CD11089581E09091570271
:102320009A3008F080E008950F931F93CF93DF93C6
:10233000EC018B01809157028A30B8F4B801CE01CC
:102340000E941812C82F811122C0809157028F3F1E
:10235000B9F40E94301B90935402809353028C2F47
:10236000DF91CF911F910F91089580915302909129
:1023700054020E94481B843F914000F7C0E0EFCF19
:102380008F5F809357028A3020F7C1E0E8CF109228
:102390005702E5CF0E940B1C08950E940E1C089561
:1023A000B0E0A0E0E6EDF1E10C942B247901C82F18
:1023B000880FDD0B41155105A9F0FE0193E0EE0FEA
:1023C000FF1F9A95E1F7ED5FFE4F81819281885A58
:1023D0009D4F208130E04217530708F49A01A9016C
:1023E0000E947824CE010E94F71CD82E8823D1F0B9
:1023F00001151105B9F083E0CC0FDD1F8A95E1F7D7
:10240000FE01ED5FFE4F438150E00417150708F40D
:10241000A801CD5FDE4F6C817D81685A7D4FC70179
:102420000E9478248D2DCDB7DEB7E7E00C944724C9
:102430000E940A1308950E9421130895A4E0B0E0B9
:10244000E4E2F2E10C942E24609171027091720228
:1024500080917302909174020E94571B11E06436C0
:1024600071058105910518F10E948B0F6E5F7F4FFA
:102470008F4F9F4F69837A838B839C8310E000E0AA
:1024800030E020E044E050E0BE016F5F7F4F82E02B
:102490000E94D011182F882351F00E943C1B60939A
:1024A0007102709372028093730290937402812F71
:1024B0002496E4E00C944A24B0E0A0E0E2E6F2E1E5
:1024C0000C9428247C015B016A010E948D1101E0BB
:1024D00010E0882311F00AE010E0C1E0D0E0B5017F
:1024E000C701F6010995811104C021960C171D073B
:1024F0002CF4CDB7DEB7EAE00C944424CC9F9001D5
:10250000CD9F300D300D112490E080E045E34A95D9
:10251000F1F70000019682179307C1F7E0CFA7E01B
:10252000B0E0E5E9F2E10C9428247B01C090AF0112
:10253000D090B00101E010E09E01295F3F4F50E0D4
:1025400040E070E060E080E00E94D011182F882306
:1025500009F448C056018FEFA81AB80A60916D02BD
:1025600070916E0280916F02909170020E94571BD1
:10257000643671058105910568F106E010E09E0161
:102580002F5F3F4F50E040E070E060E081E00E944C
:10259000D011D82E66E070E0C5010E94E21411E06F
:1025A0009F81981310E01D2141F10E943C1B609314
:1025B0006D0270936E0280936F029093700286E0BA
:1025C000FE013196A7E6B2E001900D928A95E1F7FF
:1025D00011E013C066E070E0C5010E94E2149F8123
:1025E0008913CBCF86E0F6013196DE01119601907A
:1025F0000D928A95E1F71111E2CF86E0E7E6F2E06D
:10260000D70101900D928A95E1F7812F2796EAE094
:102610000C9444240F931F93CF93DF93EC018B0111
:102620004FE852E10E945C12882331F04EE152E102
:10263000B801CE010E945C12DF91CF911F910F91E2
:1026400008950F931F93CF93DF93C091AF01D09163
:10265000B001CE01019626E0FB01DC0101900D9254
:102660002A95E1F766E070E00E94E21488836F81AA
:10267000788589859A850091630210916402209182
:10268000650230916602601771078207930751F067
:102690006093630270936402809365029093660274
:1026A0000E946E0FDF91CF911F910F9108950E94AC
:1026B000D90C08950E94C91A0E94B01E0E94960C5F
:1026C0000E94CA1E0E94C60C0E94D71E0E94DC1ED9
:1026D0000E9457130E94F61E0E94A40CF7CF9093FD
:1026E000B3018093B20108950E94A50B089580E084
:1026F0000E94C10F817008950E94E8102FEF86E7B5
:1027000091E0215080409040E1F700C000000E941D
:10271000E8100E947713882321F00E9474130E940E
:10272000971B08950E947C1308958B3109F465C0AE
:1027300040F58B3071F078F4863009F447C020F40E
:10274000853059F180E00895873009F448C0883019
:10275000C9F781E00895803109F45DC068F48E30D6
:1027600089F790914E02892F8B7F92FF846080932E
:102770004E0282FD4CC0EDCF863159F3893149F3C9
:10278000E1CF8A3201F160F48732B1F020F48E316A
:10279000C8F28D514CC08932A9F60E945502D9CF9A
:1027A000833440F48A3308F041C0853329F08833FC
:1027B00081F2C8CF833431F681E090E00E94840634
:1027C0000E943706C6CF0E944B0CC3CF80914E02A9
:1027D000807F80934E0281E08093780208959091EB
:1027E0004E02892F8E7F90FF816080934E0280FD84
:1027F000B0CF817F80934E02ACCF90914E02892F53
:102800008D7F91FF826080934E0281FFA2CF8091E5
:102810004E028160EFCF90914E02892F877F93FF08
:10282000886080934E0283FDF2CF93CF895321E0DD
:1028300030E0A90102C0440F551F8A95E2F7CA0192
:10284000BDCF80E008950E9421140895CF93C82F32
:10285000809178028130B9F0882331F08230A1F183
:102860001092780280E00DC00E94B30A8232D1F744
:102870008C2F0E94211481111BC08C2F0E94951354
:102880008170CF9108950E94B30A823289F38C2F10
:102890000E94231481110AC0C43199F060F4CB3036
:1028A00029F0C03169F782E08093780281E0E8CFB7
:1028B00081E090E0E5CFC93221F0C833B9F380E080
:1028C000DFCF10927802FBCFC93209F440C0F0F498
:1028D000C431E9F1A8F481E0C73099F68093220170
:1028E00084E1809321018AE0809320018EE180932E
:1028F0001F0188E080931C0188E280931B0104C0C3
:1029000082EE8C0F8A3070F181E0BBCFC03509F4C4
:1029100050C0B8F48AE0CF34B9F7E0917502F09175
:102920007602309789F32081082E000C990B820FD4
:10293000911D8F3F910509F00CF43FC08FEF80830C
:10294000E3CFC135C1F181E0C23539F39ACF80912F
:1029500077028823C9F210927702109276021092C1
:102960007502D2CFCD51C0937702C330C9F048F47D
:10297000C13099F081E291E0C23051F010927702BB
:10298000C3CFC53099F078F08BE191E0C630B1F754
:102990009093760280937502B7CF82E291E0F8CFF0
:1029A00080E291E0F5CF8FE191E0F2CF8CE191E010
:1029B000EFCF86EFB2CF8FEFB0CF97FFC0CF1082AF
:1029C000A3CF0895FC01680F791F8FEF91E3E617FD
:1029D000F70709F408952191822728E030E087FF66
:1029E00006C0880F892721503109C9F7F0CF880F19
:1029F000FACFCF93DF93EB0186319C4711F50E940C
:102A0000B30A9D81992399F08A7A91E009F490E0C4
:102A100090937902811109C089E20E94F7190E94FE
:102A2000420B80E0DF91CF91089585E3F6CF80914E
:102A30007902811104C089E20E94FF19F0CF85E379
:102A4000FBCF81E0EFCFCF93DF93EC01FB018581DA
:102A5000882309F4D2C09E0130572332310508F093
:102A6000B2C00E94C80B90939B0280939A02FE0111
:102A7000E150F047E232F10520F4EF51FB4D0C94A8
:102A80001A2480919A02816080939A0293C0809167
:102A90009B02886080939B028DC080919A02826025
:102AA000F3CF80919A028460EFCF80919A02886080
:102AB000EBCF80919B028160EDCF80919B02826081
:102AC000E9CF80919A028061DFCF80919A02806283
:102AD000DBCF80919A028064D7CF0E943706809125
:102AE0009A028068D1CF80919A028C60CDCF80917C
:102AF0009B028360CFCF80919A028E7FC5CF809159
:102B00009B02877FC7CF80919A028D7FBDCF809136
:102B10009A028B7FB9CF80919A02877FB5CF80913F
:102B20009B028E7FB7CF80919B028D7FB3CF809128
:102B30009A028F7EA9CF80919A028F7DA5CF809136
:102B40009A028F7BA1CF0E94370680919A028F77DD
:102B50009BCF80919A02837F97CF80919B028C7F3D
:102B600099CF80919A0282FB992790F921E09227D0
:102B700090FB82F990FB83F987CF80919B02982F7D
:102B8000909591708E7F892B90FB81F983CF9091E6
:102B90009A02892F8F7B96FF806476CF0E9437063A
:102BA00090919A02892F97FB87F980586DCF81E029
:102BB0000E944E0C80919A0290919B020E94CD0B34
:102BC0000E94370680E0DF91CF91089580E0F0CF3A
:102BD00090919A02892F8F7E94FF806155CF9091BA
:102BE0009A02892F8E7F90FF81604ECF90919B0239
:102BF000892F877F93FF88604DCF81E0E4CF282F16
:102C000035EB2303C001112497FF04C080589109BC
:102C1000892F089580589F4FFBCF8091800280FFBD
:102C20000DC06091200170E0660F771F603871055C
:102C300070F56115710569F1862F089581FF07C050
:102C40006091200184E0689FB0011124EFCF609172
:102C5000200182FD0AC080917F028823A9F0209183
:102C60001F0160912001821710F088E0ECCF869F51
:102C7000C001112433E0880F991F3A95E1F7622FC4
:102C800070E00E940624D2CF68E070E0D5CF8FE7D5
:102C9000089581E008958091800280FF0CC06091CA
:102CA0001C0170E0759567957595679561157105BF
:102CB00049F1862F089581FF06C060911C0170E0E4
:102CC00075956795F3CF60911C0182FD0BC09091C3
:102CD0007E029923A1F060911B0180911C0196173F
:102CE00038F0682F70E06038710500F38FE70895C1
:102CF000899FC001112470E00E940624F4CF61E096
:102D000070E0D7CF81E008958D3C31F40E940D161C
:102D100081958093840208958E3C19F40E940D16CB
:102D2000F8CF8F3C31F40E940D1681958093830279
:102D30000895803D19F40E940D16F8CF893D29F4BD
:102D40000E944B168093850208958A3D21F40E94CB
:102D50004B168195F7CF8B3D31F40E944B16819530
:102D60008093860208958C3D19F40E944B16F8CF8B
:102D70009FE2980F983070F4815D990B21E030E06C
:102D800001C0220F8A95EAF780918202822B8093FC
:102D9000820208958D3D31F480918002816080939C
:102DA000800208958E3D21F4809180028260F7CFE9
:102DB0008F3DB9F7809180028460F1CF409183020A
:102DC0008D3C59F48091840287FF0DC010928402DB
:102DD00041110BC010927F0208C08E3C81F480919B
:102DE000840218169CF3442381F08091850290910F
:102DF0008602892B09F05AC010927E0208958F3CFA
:102E000049F447FFF0CF1092830280918402811130
:102E1000ECCFE0CF803D19F41416ACF3E4CF9091E1
:102E20008502893D29F41916F4F610928502DBCF4C
:102E30008A3D19F497FFD7CFF8CF909186028B3D4A
:102E400029F497FFD0CF10928602CDCF8C3D19F494
:102E50001916CCF3C8CF9FE2980F983090F4815D9B
:102E6000990B21E030E0B90102C0660F771F8A9507
:102E7000E2F7CB01809590918202892380938202B0
:102E8000B2CF8D3D31F4809180028E7F809380029D
:102E9000AACF8E3D21F4809180028D7FF7CF8F3DA8
:102EA00009F0A1CF809180028B7FF0CF08950E941E
:102EB000301B9C019091830280918402982B21F019
:102EC00030937D0220937C0290918502809186024E
:102ED000982B21F030937B0220937A0281E892E0D4
:102EE0000E944F19089586E0E1E8F2E0DF011D92AB
:102EF0008A95E9F710927F0210927E02109280026A
:102F00000895FC01828181110EC0838181110BC063
:102F10008481811108C091E08581811101C090E018
:102F2000892F8170089581E0FCCFA6E0B0E0EBE945
:102F3000F7E10C942F2486E0E1E8F2E0DE0111963F
:102F400001900D928A95E1F710928302109284020B
:102F500010928502109286028B819C81892B89F0C8
:102F600080917C0290917D020E94481BAC0190915F
:102F70007F029923C9F1809121018417150608F475
:102F800040C08D819E81892B91F080917A02909131
:102F90007B020E94481BAC0190917E02992309F4A8
:102FA0006AC080911D018417150608F472C0BE0125
:102FB0006F5F7F4F81E892E00E94121A811105C075
:102FC00081E892E00E94811781110E94571786E0E4
:102FD000FE013196A1E8B2E001900D928A95E1F7E9
:102FE0002696E3E00C944B24209122018AE0289F4E
:102FF000900111242417350720F69F5F90937F02DC
:1030000002C09F3FD1F71B81112359F00E940D167A
:103010009FEF11160CF491E0899F802D112480936D
:1030200083021C81112359F00E940D169FEF111687
:103030000CF491E0899F802D11248093840280916B
:103040008302882309F49DCF10918402112309F48F
:1030500098CF0E94FF15882351F080938302812F1F
:103060000E94FF15882329F0809384028ACF81E093
:10307000F4CF81E0F9CF20911E018AE0289F9001D2
:1030800011242417350708F092CF9F5F90937E029A
:1030900002C09F3FD1F71D81112359F00E944B16AA
:1030A0009FEF11160CF491E0899F802D11248093DD
:1030B00085021E81112359F00E944B169FEF1116B5
:1030C0000CF491E0899F802D1124809386028091D9
:1030D0008502882309F46BCF10918602112309F42D
:1030E00066CF0E94FF15882351F080938502812FBF
:1030F0000E94FF15882329F08093860258CF81E033
:10310000F4CF81E0F9CF0F931F93CF93DF93C42FB8
:10311000D22FFC0185818823C9F0409389020E9447
:10312000301B909388028093870280E28C0F883056
:1031300040F4C77081E001C0880FCA95EAF70E9489
:10314000E403DF91CF911F910F91089510918902AF
:10315000141332C080918702909188020E94481B0C
:10316000883C910548F5C0E2CD0F1D17B9F080E20B
:10317000810F883040F4177081E001C0880F1A95E4
:10318000EAF70E94EB03C83048F481E09D2F977066
:1031900001C0880F9A95EAF70E94E403802F0E94ED
:1031A000DB03C83070F6D77081E001C0880FDA9574
:1031B000EAF70E94EB03C5CF80E28C0F883008F657
:1031C000C77081E001C0880FCA95EAF7F2CF0F936C
:1031D000DB0188519C4787309105A0F5FC01ED5F2C
:1031E000FA4D0C941A2406E221EE41EE6AE17CE7E6
:1031F000CD010E94831880E00F91089507E225EE2B
:1032000045EE6BE17CE7F4CF06E221EE40EE68E1AB
:103210007CE7EECF07E225EE44EE69E17CE7E8CFFC
:1032200006E221EE42EE6CE17CE7E2CF07E225EE1A
:1032300046EE6DE17CE7DCCF08E221E045EE6EE191
:103240007CE7D6CF15968C91882319F010928902CD
:10325000D3CF81E0D1CF9093900280938F020895D5
:103260000E946E11811103C080918A020895E0913D
:103270008F02F0919002309729F00190F081E02DBB
:103280000995089580E00895E0918F02F0919002F1
:10329000309721F00280F381E02D09950895E091A7
:1032A0008F02F0919002309739F022E0DC012C93EC
:1032B0000680F781E02D09950895A3E0B0E0E3E6EC
:1032C000F9E10C94302420918D0230918E02281760
:1032D0003907A1F090938E0280938D02E0918F02C6
:1032E000F0919002309751F023E029839B838A83E9
:1032F0000084F185E02DCE01019609952396E2E048
:103300000C944C24A3E0B0E0E8E8F9E10C943024FC
:1033100020918B0230918C0228173907A1F09093ED
:103320008C0280938B02E0918F02F0919002309793
:1033300051F024E029839B838A830084F185E02D6A
:10334000CE01019609952396E2E00C944C2440911D
:103350000001509101019A012E5F3F4F485F5F4F7E
:1033600080E02417350709F40895F90191919F0130
:103370009923B9F38F5FF5CF882371F02091000175
:1033800030910101F9013296285F3F4F91919817D2
:1033900029F0E217F307D1F780E0089581E008955E
:1033A0009C01FC0132969FEF80E04191461751F05D
:1033B0009F3F19F4411101C0982F8F5F8630A9F704
:1033C0009F3F09F40895290F311D97FD3A95F901A2
:1033D00062830895FC01329608962191261303C05A
:1033E000DF0111971C92E817F907B9F70895682FC4
:1033F00080910001909101010E94D0190895682FD9
:1034000080910001909101010E94EA190895E091D4
:103410000001F0910101329686E0DF011D928A954C
:10342000E9F70895DC01FB0111969C9111978181C8
:10343000981322C012968C911297882319F09281CA
:1034400089131AC013968C911397882319F09381CE
:10345000891312C015968C911597882319F09581C0
:1034600089130AC014969C91992321F081E024814C
:10347000291303C080E001C081E0817008950895A0
:103480000E943F1A089581110EC081E080932601A9
:103490006091230170912401809125019091260172
:1034A0000E94401A089582E0F1CF83E080932601C4
:1034B0006091230170912401809125019091260152
:1034C0000E94401A08950E94431A089581E0809353
:1034D0002601609123017091240180912501909132
:1034E00026010E94401A08950E94661A089591E0EC
:1034F000811101C090E090932501609123017091AA
:10350000240180912501909126010E94401A08957E
:103510008091250108958093240160912301709189
:10352000240180912501909126010E94401A08955E
:10353000809124010895809323016091230170916B
:10354000240180912501909126010E94401A08953E
:10355000809123010895089508950E94AC1A08955A
:10356000089508950E94AB1A0895CF930E94B01A4F
:103570000E94E8100E94B11AC0E08C2F0E94C10F77
:10358000811105C0CF5FCC30C1F7CF91089581E0A4
:10359000FCCF85B7806885BF85B7806885BF0895F3
:1035A0001F921FB61F9211248F939F93AF93BF93C7
:1035B00080919102811113C08091BA029091BB0257
:1035C000A091BC02B091BD024196A11DB11D809396
:1035D000BA029093BB02A093BC02B093BD02BF910C
:1035E000AF919F918F911F901FBE1F901895809152
:1035F000C202843031F10E94BD021092910288E132
:1036000090E020E40FB6F894A895809360000FBE78
:103610002093600083B7817F846083BF83B781601C
:1036200083BF7894889583B78E7F83BF0FB6F89455
:10363000A89580916000886180936000109260007E
:103640000FBE08950E9437060E94C202089582E0CC
:1036500084BD93E095BD9AEF97BD80936E00089569
:103660002FB7F8948091BA029091BB02A091BC024E
:10367000B091BD022FBF08952FB7F8946091BA02A0
:103680007091BB028091BC029091BD022FBF089542
:103690009C014FB7F8948091BA029091BB02A0911F
:1036A000BC02B091BD024FBF821B930B0895CF9215
:1036B000DF92EF92FF922FB7F894C090BA02D090A9
:1036C000BB02E090BC02F090BD022FBFA7019601A3
:1036D000261B370B480B590BCA01B901FF90EF901D
:1036E000DF90CF90089578941F921FB61F921124F7
:1036F0008F939F93AF93BF938091BA029091BB0237
:10370000A091BC02B091BD020196A11DB11D809394
:10371000BA029093BB02A093BC02B093BD02BF91CA
:10372000AF919F918F911F901FBE1F90189587E7B3
:1037300097E7909301088093000888E19AE00FB61C
:10374000F894A895809360000FBE90936000FFCF1F
:1037500088E19AE00FB6F894A895809360000FBEB8
:1037600090936000FFCF8EE1489B02C08150E1F74B
:10377000489BFECF0895589880E28A95F1F7589AB1
:103780000895FC013BE03A95F1F798E020E080E0F5
:1037900031E040E14A95F1F7880F489B02C0816013
:1037A000232742E04A95F1F7000040E14A95F1F7FE
:1037B000915079F790E19A95F1F799B132E03A9505
:1037C000F1F7000040E14A95F1F7917092272081CE
:1037D000920F90830895A1E0B0E0E1EFFBE10C943B
:1037E0002C2419828C017C01E60EF11C0E151F059C
:1037F00041F481E09981911180E02196E6E00C94FA
:1038000048240E94B31BCE0101960E94C11BF801FF
:1038100081938F01EBCF509A589A08955098589AF7
:10382000E89AE9E6F0E080818C7F8083089561501A
:10383000770B91E001C0990F6A95EAF720E031E03B
:10384000911108C0222391F0589A80E28A95F1F7ED
:1038500058980895492F482339F0589A232740E271
:103860004A95F1F79695ECCF5898F9CF5898EDCF47
:10387000FF920F931F93CF93DF93EC018C01060F00
:10388000111DC017D10729F4CDB7DEB7E5E00C94C0
:103890004924F9900E94BB1B68E08F2D0E94171CE1
:1038A000F0CF1F920F920FB60F9211240F931F9318
:1038B0002F933F934F935F936F937F938F939F9338
:1038C000AF93BF93EF93FF93CF93DF930F92CDB757
:1038D000DEB719820E94B31BCE0101960E94C11B64
:1038E000082F069506950695282F22952570902F6E
:1038F0009570290F922F937026952695920F9827F1
:1039000097708981982B09F05CC0043008F059C089
:1039100080E18A95F1F7589A509A82E08A95F1F7FA
:1039200000C0589888E0089F80011124D801AD5F3D
:10393000BE4F1696ED91FC9117973097A9F06091C4
:10394000AF017091B00114962D913C911597260FFF
:10395000371F11968D919C911297680F791F1396BE
:103960004C9113978C910995F801ED5FFE4F63819F
:10397000662351F02091AF013091B001848195818F
:10398000820F931F0E94381C0E94BB1B80E18A9506
:10399000F1F758985098589A80E18A95F1F7F80114
:1039A000ED5FFE4F6081662351F02091AF013091B1
:1039B000B00181819281820F931F0E94EB1B0E94B4
:1039C000B31B0F90DF91CF91FF91EF91BF91AF911A
:1039D0009F918F917F916F915F914F913F912F9127
:1039E0001F910F910F900FBE0F901F9018950F937E
:1039F0001F93CF93DF93EC0104970CF04CC0F89425
:103A0000509A589885E08A95F1F700009C2F96957A
:103A100095708C2F8570980F892F83709695969549
:103A200023E0CC0FDD1F2A95E1F7980F8E01092BBB
:103A30000E94BB1B00C068E0802F0E94171C80E121
:103A40008A95F1F75098589A489B1EC087E090E0FD
:103A500048991CC0FE01ED5FFE4F63816623F9F0BB
:103A60002091AF013091B00184819581820F931F25
:103A70000E94EB1B811113C0509A589A7894DF91E1
:103A8000CF911F910F91089500C0DECF019729F4C7
:103A9000509A589A789480E0F2CF00C0D9CF0E9413
:103AA000B31B80E28A95F1F75898509A80E18A9585
:103AB000F1F7CD5FDE4F6881662351F02091AF01B1
:103AC0003091B00189819A81820F931F0E94381C26
:103AD0000E94BB1B789481E0D2CF08959B01BA016C
:103AE0009091C2029430E9F48F708093E9009FEFC7
:103AF0008091E800915085FD06C085ED8A95F1F72B
:103B000000009111F5CF8091E80085FF0AC050E0D8
:103B100040E0C9010E946D1F8091E8008E7780937C
:103B2000E800089543E050E0BC0182E00E946E1D71
:103B3000089546E050E0BC0182E00E946E1D0895A9
:103B4000CF93DF93EC010E94881A48E050E0BE0159
:103B500081E00E946E1D88E0FE01A2E9B2E00190C2
:103B60000D928A95E1F7DF91CF9108958091C1027E
:103B7000811109C00E94FD200E945A218091E2001B
:103B800084608093E20008951092C10208950E941B
:103B9000661A81E00E94771A08956091BE0281E062
:103BA000611101C080E00E94551A08959091C202EF
:103BB00081E0943009F080E06091BE020E94631AB7
:103BC000089542E061EC81E00E94792042E261ECDC
:103BD00082E00E9479209091C20281E0943009F045
:103BE00080E06091BE020E94431A08958091C40251
:103BF000833009F461C030F48130D1F1823009F4AE
:103C00009EC008958A3009F48AC08B3009F46FC0D1
:103C1000893009F050C08091C302813209F04BC055
:103C20008091C7029091C802029708F044C0809129
:103C3000E800877F8093E8008091E80082FF37C02A
:103C40009091F3008091F200029731F48091F1009D
:103C5000813011F0863021F48091F1000E948B1A9E
:103C60008091E8008B778093E8000E94AD2023C00C
:103C70008091C302813AF9F48091E800877F8093B4
:103C8000E8008091C7029091C802892B61F468E036
:103C900082E992E070E00E94BC1F8091E8008B777F
:103CA0008093E800089560E090E080E0F3CF809199
:103CB000C2028111C1CF08958091C302813AD9F720
:103CC0008091C7029091C802892BA9F78091E800E2
:103CD000877F8093E8008091E80080FFFCCF0E94FE
:103CE000881A8093F1008091E8008E77BCCF809194
:103CF000C302813201F78091C7029091C802892BDB
:103D0000D1F68091E800877F8093E8000E94AD2083
:103D10008091C5020E94771A0E943706089580910B
:103D2000C302813241F68091E800877F8093E800EA
:103D30000E94AD208091C6020E949B1A0895809136
:103D4000C302813A09F0B7CF8091E800877F809362
:103D5000E8008091E80080FFFCCF0E94A81AC1CF44
:103D600084B7877F84BF0FB6F894A89580916000D0
:103D7000886180936000109260000FBE80E890E040
:103D80000FB6F89480936100909361000FBE0E947B
:103D9000741A08950E94FD200E945A21E2EEF0E07C
:103DA00080818460808378940E94D923089587E27B
:103DB00091E00E942B1908958091C202853031F460
:103DC0008091C202853019F00E94221B08950E9442
:103DD000F71A0E94B51A882399F38091C0028823AC
:103DE00079F30E94571F0E943706EACF08959A017F
:103DF0004091C9025091CA020E94FF1E0895492FA6
:103E000055274330510519F168F44130510509F443
:103E100044C04230510509F445C090E080E050E0D4
:103E200040E025C04132510549F142325105A9F720
:103E300084E490E04EEB52E061157105C1F08BE730
:103E400090E043E452E06130710589F0E6CF9927B4
:103E50008130910581F0009729F00297F1F6ECECA2
:103E6000F1E002C0E2EFF1E0849190E0AF01F901EE
:103E7000518340830895E2EEF1E0F6CF89E090E0CF
:103E800048E052E06115710591F389E090E041E26C
:103E900052E06130710559F3C0CF82E190E041E317
:103EA00052E0E5CF8BE390E046EF51E0E0CF80E1D8
:103EB00089BD82E189BD09B400FEFDCF8091D800A3
:103EC0008F7D8093D8008091E00082608093E00035
:103ED0008091E00081FDFCCF0895AF92BF92CF9218
:103EE000DF92FF920F931F93CF93DF936C01EB014F
:103EF0008A010E94CC20F82E811123C001151105E2
:103F000039F0F80180819181C81BD90BC80ED91EE8
:103F1000B12CA12C2097A9F08091E80085FD22C04A
:103F20008091E8008E778093E80001151105A1F0DB
:103F3000F80180819181A80EB91EB182A08285E02E
:103F4000F82E8F2DDF91CF911F910F91FF90DF9071
:103F5000CF90BF90AF9008950E94CC208823D1F2DB
:103F6000F82EEFCFF60181916F018093F100219738
:103F7000FFEFAF1ABF0ACECFFC018091C90290912A
:103F8000CA0286179707A0F06115710529F4909170
:103F9000E8009E779093E80090E06115710551F478
:103FA000911108C08091E80082FF34C080E008953C
:103FB000BC01F2CF8091C2028823C1F18530C1F1EA
:103FC0008091E80083FD30C08091E80082FDEACF57
:103FD0008091E80080FFE1CF8091F3002091F20012
:103FE000382F6115710519F02830310558F091E02E
:103FF0002830310509F090E02091E8002E772093D9
:10400000E800CBCF81918093F100615071092F5F5F
:104010003F4FE7CF8091C202882341F0853041F0C5
:104020008091E80083FFBECF81E0089582E008958B
:1040300083E00895FC018091C9029091CA0286171D
:104040009707A0F06115710529F48091E8008E773B
:104050008093E80090E06115710551F4911108C05A
:104060008091E80082FF35C080E00895BC01F2CF66
:104070008091C2028823C9F18530C9F18091E8009E
:1040800083FD31C08091E80082FDEACF8091E80095
:1040900080FFE1CF8091F3002091F200382F61156D
:1040A000710519F02830310558F091E028303105BC
:1040B00009F090E08091E8008E778093E800CBCF04
:1040C00084918093F1003196615071092F5F3F4FC9
:1040D000E6CF8091C202882341F0853041F0809183
:1040E000E80083FFBDCF81E0089582E0089583E07A
:1040F0000895982F973028F08F708093E90081E021
:1041000008959093E900242F762F50E0981731F00E
:104110007091EC002091ED005091F00021FD02C063
:104120009F5FE8CF3091EB003E7F3093EB00309102
:10413000ED003D7F3093ED003091EB003160309326
:10414000EB007093EC002093ED005093F000209171
:10415000EE0027FDE5CF80E008958091C30287FF40
:1041600013C08091E80082FF06C08091E8008B7741
:104170008093E80004C08091C2028111F2CF0895BB
:104180008091C2028823D9F38091E80080FFF8CFA4
:104190008091E8008E77ECCF2091E4003091E5002B
:1041A00095E6A9012091EC00822F817020FF06C0C6
:1041B0008091E80080FF06C080E008952091E8002B
:1041C00022FD1AC08091C202882389F0853089F0CF
:1041D0008091EB0085FD0FC02091E4003091E50057
:1041E00042175307F9F29150E1F684E0089582E016
:1041F000089583E0089581E008950E946C210E9453
:104200007421E0EEF0E0808181608083E8EDF0E0F1
:1042100080818F77808319BCA7EDB0E08C918E7F71
:104220008C9380818F7E80831092C10208950F93BA
:104230001F93CF93DF930E946C210E947421C8EDDD
:10424000D0E088818F77888388818068888388819F
:104250008F7D888319BC1092C2021092BE02109208
:10426000C0021092BF0200EE10E0F80180818B7F47
:10427000808388818160888342E060E080E00E94E2
:104280007920E1EEF0E080818E7F8083E2EEF0E045
:10429000808181608083808188608083F801808153
:1042A0008E7F8083888180618883DF91CF911F9189
:1042B0000F910895E8EDF0E080818F7E8083E7ED37
:1042C000F0E080818160808384E082BF81E0809320
:1042D000C1020E9417210895E8EDF0E080818E7FF1
:1042E00080831092E20008951092DA001092E100AB
:1042F00008951F920F920FB60F9211242F933F93A0
:104300004F935F936F937F938F939F93AF93BF93DD
:10431000EF93FF938091E10082FF0BC08091E20058
:1043200082FF07C08091E1008B7F8093E1000E94B3
:10433000D8238091DA0080FF19C08091D80080FFD7
:1043400015C08091DA008E7F8093DA008091D900C9
:1043500080FF96C080E189BD82E189BD09B400FE7D
:10436000FDCF81E08093C2020E94B61D8091E100E2
:1043700080FF19C08091E20080FF15C08091E200AB
:104380008E7F8093E2008091E20080618093E20062
:104390008091D80080628093D80019BC85E080931A
:1043A000C2020E94CD1D8091E10084FF2BC080914C
:1043B000E20084FF27C080E189BD82E189BD89B523
:1043C000982F917080FFFBCF8091D8008F7D8093D4
:1043D000D8008091E1008F7E8093E1008091E2001F
:1043E0008F7E8093E2008091E20081608093E20002
:1043F0008091BE02882309F449C084E08093C20200
:104400000E94D61D8091E10083FF29C08091E200C7
:1044100083FF25C08091E100877F8093E10082E0E7
:104420008093C2021092BE028091E1008E7F809341
:10443000E1008091E2008E7F8093E2008091E200B3
:1044400080618093E20042E060E080E00E94792099
:104450008091F00088608093F0000E94C71DFF915A
:10446000EF91BF91AF919F918F917F916F915F91EC
:104470004F913F912F910F900FBE0F901F90189565
:1044800019BC1092C2020E94C41D70CF8091E3003B
:1044900087FD93E09093C202B3CF1F920F920FB6A5
:1044A0000F9211242F933F934F935F936F937F93BA
:1044B0008F939F93AF93BF93CF93DF93EF93FF932C
:1044C000D091E900DF708091EC00C82FC17080FDB1
:1044D000C0E81092E9008091F000877F8093F0009F
:1044E00078940E9491221092E9008091F0008860F7
:1044F0008093F000CD2BCF70C093E900FF91EF9136
:10450000DF91CF91BF91AF919F918F917F916F91EB
:104510005F914F913F912F910F900FBE0F901F9081
:104520001895AAE2B0E0E7E9F2E20C942F2483ECBC
:1045300092E02091F100FC012193CF01F2E08B3C4D
:104540009F07B9F70E94F61D8091E80083FF1EC106
:104550008091C3029091C4029A3008F017C1E92FEC
:10456000F0E0E65FFA4D0C941A24803899F0823816
:1045700009F00CC18091C7028F70873008F006C126
:104580008093E9008091EB0085FB882780F91092E9
:10459000E90006C08091BF029091C0029111826033
:1045A0009091E800977F9093E8008093F10010923B
:1045B000F1008091E8008E77E5C0882309F4D3C02C
:1045C000823009F0E3C08091C5028111D6C080918C
:1045D000C7028F702FEF280F263008F0D7C08093C6
:1045E000E9002091EB0020FFC8C0933031F48091A6
:1045F000EB0080628093EB00C0C09091EB00906173
:104600009093EB0021E030E001C0220F8A95EAF799
:104610002093EA001092EA008091EB008860EACFD4
:104620008111B4C01091C5021F778091E30080789A
:10463000812B8093E3008091E800877F8093E800DE
:104640000E94AD208091E80080FFFCCF8091E300C4
:1046500080688093E30082E0111183E08093C202BE
:1046600095C08058823008F091C08091C502909129
:10467000C6028C3D23E09207A1F583E08A838AE29B
:1046800089834FB7F894DE01139620E03EE051E2B3
:10469000E32FF0E050935700E49120FF03C0E29530
:1046A000EF703F5FEF708E2F90E0EA30C0F0C7965A
:1046B0008D939D932F5F243159F74FBF8091E80070
:1046C000877F8093E8006AE270E0CE0101960E9445
:1046D000BC1F8091E8008B778093E80057C0C0969C
:1046E000E7CF6091C7027091C802AE014F5F5F4F84
:1046F0000E94F71EBC01892B09F448C09091E80084
:10470000977F9093E80089819A810E941A20E1CFD7
:104710008038E1F58091E800877F8093E800809100
:10472000BE028093F10045CF811130C09091C50247
:10473000923060F58091E800877F8093E800909345
:10474000BE020E94AD208091BE02882311F084E059
:1047500005C08091E30087FDFACF81E08093C2021B
:104760000E94E11D13C08091C502813079F481E07F
:10477000933009F080E08093C0021092E9008091AC
:10478000E800877F8093E8000E94AD208091E800D8
:1047900083FF0AC08091E800877F8093E8008091C2
:1047A000EB0080628093EB00AA96E3E00C944B242C
:1047B0000895CF938091C2028823A1F0C091E900AF
:1047C000CF709091EC00892F817090FD80E8C82B0C
:1047D0001092E9008091E80083FD0E949122CF7041
:1047E000C093E900CF9108950E94FD201092C2026B
:1047F0000895E8EDF0E08081806180838AE18A9508
:10480000F1F700C08091D9008170089597FB072EC1
:1048100016F4009407D077FD09D00E94572407FCB6
:1048200005D03EF4909581959F4F089570956195C0
:104830007F4F0895EE0FFF1F0590F491E02D09942E
:104840002F923F924F925F926F927F928F929F92A0
:10485000AF92BF92CF92DF92EF92FF920F931F938E
:10486000CF93DF93CDB7DEB7CA1BDB0B0FB6F8943F
:10487000DEBF0FBECDBF09942A88398848885F847F
:104880006E847D848C849B84AA84B984C884DF80F0
:10489000EE80FD800C811B81AA81B981CE0FD11DD4
:1048A0000FB6F894DEBF0FBECDBFED010895AA1B71
:1048B000BB1B51E107C0AA1FBB1FA617B70710F00B
:1048C000A61BB70B881F991F5A95A9F7809590953D
:1048D000BC01CD010895FB01DC0104C08D91019064
:1048E000801921F441505040C8F7881B990B089556
:1048F000FB01DC0102C001900D9241505040D8F7FD
:104900000895F999FECF92BD81BDF89A992780B597
:104910000895A8E1B0E042E050E00C94C524DC0129
:10492000A40FB51F4150504048F0CB01840F951F94
:104930002E910E94A02441505040D0F70895262F78
:10494000F999FECF92BD81BDF89A019700B4021685
:1049500039F01FBA20BD0FB6F894FA9AF99A0FBE33
:1049600008950396272F0E94A0240E949F24252F9C
:104970000E94A024242F0C94A0240196272F0E948B
:10498000A0240C949F24DC01CB01FC01F999FECFFB
:1049900006C0F2BDE1BDF89A319600B40D924150C7
:1049A0005040B8F70895F894FFCF330433048304DC
:1049B0008304E80404056204620409057A05890594
:1049C00089057B15EF1583154D155115871555155F
:1049D0008B1597156115E81565159B1569159F15BC
:1049E000C7156D15A315CE157315A915B115591554
:1049F0008F155D1593157715AD15BD15D715E615F2
:104A000047157F15F61504190A19F318FE18101921
:104A100016191C19B522DD22C623DD22C623102358
:084A20003123C62388239423EF
:104A28002E02010000000100000000000000060145
:104A38000000000407000000000000280850011EC4
:104A48000A140100000100981AA01D6D1D991D92FD
:104A58001DE200E900EA00B500B600B700CD00830A
:104A680001CC008A0192019401210223022402252B
:104A780002260227022A02B300B4006F0070009FCA
:104A880001CB019F02A002818283E200E900EA00D3
:104A9800B500B600B700CD008301CC008A019201B1
:104AA80094012102230224022502260227022A0257
:104AB800B300B4006F0070009F01CB019F02A002F9
:104AC800818283946697C63435F6F7313332365887
:024AD8000200DA
:00000001FF
