:100000000C94C9010C94C81C0C94E6010C94E601F4
:100010000C94E6010C94E6010C94E6010C94E601C4
:100020000C94E6010C94E6010C94F0210C94C4228B
:100030000C94721B0C94E6010C94E6010C94E601FE
:100040000C94E6010C94E6010C94E6010C94E60194
:100050000C94E6010C94EA1B0C94E6010C94E60166
:100060000C94E6010C94E6010C94E6010C94E60174
:100070000C94E6010C94E6010C94E6010C94E60164
:100080000C94E6010C94E6010C94E6010C94E60154
:100090000C94E6010C94E6010C94E6010C94E60144
:1000A0000C94E6010C94E6010C94E60129001E0074
:1000B0001F002000210022002B0014001A0008005D
:1000C00015001700390004281624072109220A0008
:1000D000E1001D001B0006001900050000002D00B6
:1000E0002E002F003000000000002A004C0021529A
:1000F00000000000230024002500260027002252D3
:100100001C0018000C001200130031000B000D320F
:100110000E310F3433383400110010003600370030
:100120003800E50000005000510052004F00000070
:1001300000000000215228002C00000000003A00BE
:100140003B003C003D003E00000045000000000078
:10015000000000000000000000000000000000009F
:10016000000000000000000000000000000000008F
:10017000000000000000000000000000000000007F
:10018000000000003F0040004100420043004400E6
:10019000000000000000000000000000000000005F
:1001A000000000000000000000000000000000004F
:1001B000000000000000000000000000000000003F
:1001C000000000000000000000000000007C0000B3
:1001D000000000000000000000000000000000001F
:1001E000000000000000000000000000000000000F
:1001F00000000000000000000000000000000000FF
:1002000000000000000000000000000000000000EE
:1002100000000000000000000000000000000000DE
:1002200000000000000000000000000000000000CE
:1002300000000000000000000000000000000000BE
:1002400000000000000000000000000000000000AE
:100250000000000000000000000000001403440043
:1002600061006300740079006C00200043004300CB
:1002700000000E036D006A006F0068006E007300DE
:1002800000000403090409023B00020100A0FA096E
:1002900004000001030101000921110100012244B1
:1002A00000070581030800010904010001030000A3
:1002B00000092111010001227B00070582032000B3
:1002C0000112010002000000084E44071400010161
:1002D00002000105010902A10185020901A1000531
:1002E00009190129081500250195087501810205E4
:1002F00001093009311581257F95027508810609AC
:10030000381581257F950175088106050C0A38028C
:100310001581257F950175088106C0C005010980FA
:10032000A101850319012AB700150126B70095011F
:1003300075108100C0050C0901A101850419012A6D
:10034000A002150126A002950175108100C00501CB
:100350000906A101050719E029E7150025019508FF
:10036000750181029501750881010507190029FFB2
:10037000150026FF0095067508810005081901295A
:1003800005150025019505750191029501750391EB
:1003900001C011241FBECFEFDAE0DEBFCDBF11E0F8
:1003A000A0E0B1E0E6E1FBE402C005900D92A23BC3
:1003B000B107D9F722E0A2EBB1E001C01D92AB3C3E
:1003C000B207E1F70E94E1130C944A250C94000057
:1003D0008330B8F46C30A8F4463098F450E096E0DE
:1003E000699F400D511D1124FA0198E4899FE00D89
:1003F000F11D1124EE0FFF1FE455FF4F85919491DD
:10040000089581E090E008950E94E801089581E058
:1004100008950E94070208950E940702089581E04E
:1004200008950E94070208950E94070208950E94FD
:1004300014020895089508950E941A0208950895D7
:100440000895A6E0B0E0E7E2F2E00C94A624498328
:100450005A839E833091B90189819A8131111AC0E2
:100460003E81332399F0222389F00E94FE07182F42
:10047000682F89819A810E94DA0769817A81812FA8
:100480000E94EA0E2696E3E00C94C2240E94EC0738
:10049000182FF3CF0E94FE0769817A81F1CFFC010A
:1004A000262F4081518162817381848195810E94D0
:1004B00021020895CF93DF93EC0161E00E944F0287
:1004C000BE010E940902882359F061E0CE010E941A
:1004D0004F02BE010E940C028170DF91CF910895FE
:1004E00080E0FACF0F931F93CF93DF93EC0160E08E
:1004F0000E944F028C01BE010E941B02BE01C80176
:100500000E941C02DF91CF911F910F91089521E06D
:1005100030E0A90102C0440F551F8A95E2F7CA01D5
:100520000E94FC060895CF93C82F81E090E00C2E26
:1005300002C0880F991F0A94E2F70E943A0C8C2F90
:100540000E948702CF91089581E008950E94A4023D
:1005500008950E94A4020895CF93C82F0E94AF0669
:100560008C2F0E94A6028C2F0E94A9022FEF84E3F9
:100570009CE0215080409040E1F700C00000CF9106
:10058000089581E00E94AC020E940E1C089580E054
:100590000E94AC020E941F1C08950F931F93CF93DB
:1005A000DF938C0161E00E944F02EC01B8010E94D0
:1005B0001102811106C080E0DF91CF911F910F9150
:1005C0000895B801CE010E9417028823A1F3B80153
:1005D000CE010E946E19882371F3B801CE010E94EA
:1005E000AA15882341F3B801CE010E948015882303
:1005F00011F3B801CE010E942E108823E1F2F80118
:100600008581882361F0C330FCE7DF07E9F058F407
:10061000C115ECE7DE07A9F0C130DC47B9F0C8012D
:100620000E940F02C9CFCB358CE7D807A9F0CC3593
:10063000ECE7DE0771F0CA35DC4789F70E94150C3C
:10064000EECF0E94C102B7CF0E941D0C0E94C702CC
:10065000B2CF0E940B0CE3CF0E94190CE0CF0E9496
:100660001F020E94341B0E94530308950E945703E7
:100670000E9420020E94391B089581E00895089588
:10068000CF93DF93D82F0E943D03C82F882319F002
:100690008D2F0E943F038C2FDF91CF9108950895F5
:1006A0000E944003089580E00E94500308950E9434
:1006B000B7190E9450030895CF930E94B719C82F0D
:1006C0008091B4018C1779F0C093B4010E94DE1BB5
:1006D0006093B5017093B6018093B7019093B80110
:1006E0008C2F0E945003CF910895ADE0B0E0EBE76E
:1006F000F3E00C94A724488759876A877B878C8707
:100700009D8791110E944B0B1F8286E0FE01389657
:10071000DE01119601900D928A95E1F78D8181118C
:100720000DC029813A814B815C816D817E818F81F1
:100730000E94950A2D96E2E00C94C324CE01019606
:100740000E945A028111EDCFF5CFFC0124812130A6
:1007500021F4808191810E9430080895662329F058
:100760000E940B170E94DE1708950E946517FACFAA
:10077000CF93C82F8823C1F08CEF8C0F813AB0F44F
:100780008C2F0E94AD1481110FC08C2F0E94431A30
:10079000882329F08C2F0E94861A0E94BA0B8C2F76
:1007A0000E947E1A0E94BA0BCF91089580E28C0FAE
:1007B000883048F4C77081E001C0880FCA95EAF715
:1007C0000E942E0BEFCFEBE5EC0FE33040F4F0E0AE
:1007D000E959FE4F808190E00E94E419E5CFE8E5F9
:1007E000EC0FEB3150F4F0E0EE0FFF1FEF5CFE4F2B
:1007F000808191810E94091AD7CF83E38C0F8331C6
:1008000098F661E08C2F0E94AE03CECF882381F151
:100810009CEF980F913A28F40E94861A0E94BA0B16
:10082000089590E2980F983050F4877091E001C0DD
:10083000990F8A95EAF7892F0E94340BEFCF9BE539
:10084000980F933028F490E080E00E94E419089516
:1008500098E5980F9B3128F490E080E00E94091AF7
:10086000089593E3980F933118F460E00E94AE036B
:1008700008951F93CF93DF93182FEB010E94B803C5
:10088000209739F4812F0E940604DF91CF911F91A8
:1008900008958FE99FE00197F1F700C000002197CC
:1008A000EFCF70E060E0893311F460E570E00E9402
:1008B00039040895882321F00E942E0B0E94BA0B60
:1008C0000895882321F00E94340B0E94BA0B0895EA
:1008D000B0E0A0E0EEE6F4E00C94A0246C01D62F8A
:1008E000C72FFC011581068102950F700E94240B11
:1008F000E82E8823F9F0E12E1123E1F08C2F807F80
:10090000803461F080E28D0F883008F18C2F807E7A
:10091000803221F4D230D8F00023C9F080919B02BC
:1009200082FF15C082E00E94DF0B0E94240B91E041
:10093000E82EE926BC2EB2949FE0B922FBE0FB151D
:10094000B8F1EB2DF0E0E45BFA4D0C949124E12C2E
:10095000F1CF0C2F0F70C07F11F00295007F112393
:1009600099F0002359F080E28D0F883010F0D111FA
:1009700007C0802F0E942E0B0E94BA0B8D2F48C0FB
:10098000802F0E943E0BF8CF8D2F0E94060400237B
:1009900079F080E28D0F883010F0D11104C0802FE3
:1009A0000E94340B03C0802F0E94440B0E94BA0B9C
:1009B000EB2DE850FF0B349708F06BC10E94B7197C
:1009C0000E945003CDB7DEB7E9E00C94BC242C2F75
:1009D0002F70F22EC07FC03219F0F29480EFF8220F
:1009E000DD2341F0D130C9F1112309F443C00023C4
:1009F000E9F0C4CF80919B0282FD14C0112359F00D
:100A0000FF2029F08F2D0E942E0B0E94BA0B80E050
:100A10000E94B803CDCF80E00E940604FF2041F27F
:100A20008F2DBECF112369F0011104C08F2D0E94BC
:100A30005A04BECF013009F0BBCF8F2D0E94620B4C
:100A4000B7CF0111B5CF8F2D0E9461048F2D0E9469
:100A50006E0B8F2D0E94520BABCF112321F006306D
:100A600008F0A6CFE3CF053008F0A2CF8F2D0E946B
:100A700061049ECF0023D1F3D93349F43FEF87EED1
:100A800093E0315080409040E1F700C000008D2F8E
:100A90000E9406048DCF8C2F86958695837069F011
:100AA000813009F085CF8D2F9C2F9370111102C0DA
:100AB00080E090E00E94091A7BCF8D2F9C2F9370CD
:100AC000111102C080E090E00E94E41971CF612F03
:100AD0008D2F0E94AE036CCF8C2F8370A1F5111166
:100AE00067CF4D2F429546954770440F440F2D2FE9
:100AF0002F7030E0042E02C0220F331F0A94E2F759
:100B000090E080E0D4FF09C08FE090E002C0880F41
:100B1000991F4A95E2F780959095C695C695C37042
:100B2000822B932BC23049F058F4C13019F00E9447
:100B300008073ECF0E94FF063BCF0E94110738CF27
:100B40000E94FC0635CF8695112311F08C2F817001
:100B5000882309F42DCF4D2F429546954770440FB9
:100B6000440F2D2F2F7030E0042E02C0220F331FB0
:100B70000A94E2F790E080E0D4FF09C08FE090E0B3
:100B800002C0880F991F4A95E2F780959095C69507
:100B9000C695C370822B932BC23049F058F4C130F4
:100BA00019F00E94730704CF0E946A0701CF0E94C8
:100BB0007C07FECE0E942007FBCECF70112329F0C8
:100BC0008C2F0E9438078D2F32CF8D2F0E94610409
:100BD0008C2F0E944807ECCED23F41F160F4D03F09
:100BE000B9F0D13F81F0112309F443C00111C6CE01
:100BF0008C2F8F711FC0D33F01F1D43FA1F780919B
:100C00009B0282FD24C08C2F8F71112311F312C01F
:100C1000112341F0053008F0CBCE8C2F8F710E944C
:100C20005A07C6CE063008F0C3CEF7CF8C2F8F718F
:100C30001111CFCF0E943807BBCE112329F08C2F82
:100C40008F710E942C07B4CE0E942707B1CE1123CA
:100C500031F063E08C2F8F710E94C10BA9CE81E02F
:100C60000E94DF0B023008F4A3CE82E00E94DF0B6B
:100C70009FCE002359F0D93309F009CFEFEFF7EEFB
:100C800023E0E150F0402040E1F7FFCE8C2F8F7140
:100C9000A0CFEE2009F496CE0E94200B80FD92CECC
:100CA000F60115820E941A0B0E943807C6010E94A5
:100CB00076060E941A0B0E94480784CE0F931F935A
:100CC000CF93DF93EC01688179818D810E943B088D
:100CD0008C010E9485070E94FB06B801CE010E948C
:100CE0006804DF91CF911F910F910895CF93DF9307
:100CF000EC018C81882399F0CE010E94CD028111F4
:100D000011C00E94240B882351F08D81882339F073
:100D100080919B0282FF03C082E00E94DF0BDF9183
:100D2000CF910895CE010E945E06CE010E9472020C
:100D3000F6CF90E080E00E94E41990E080E00E940D
:100D4000091A0E944B0B0E94BA0B0E94FA170E94CC
:100D5000DE1708950E948E1A0E94990608950E9437
:100D60003B0B0E94AA06089592959F70963091F0D1
:100D700058F4925F9F70923058F4803F19F030F42D
:100D8000883E30F481E008959A5FF4CF843FD1F338
:100D900080E00895883EB0F3813FD1F7F3CFFC01A6
:100DA0002481222339F0808191810E9430080E94A1
:100DB000B406089580E00895A6E0B0E0E2EEF6E023
:100DC0000C94A7242696E2E00C94C324A7E0B0E09C
:100DD000ECEEF6E00C94A7242796E2E00C94C324F2
:100DE00008950E94F00608950E94F1069093E10193
:100DF0008093E001089508950E94F40608952091DB
:100E0000E0013091E101822B932B0E94F4060895BA
:100E10002091E0013091E101822393230E94F406A6
:100E200008952091E0013091E101822793270E94EB
:100E3000F40608950E94F00608950E941A07089586
:100E40000E941D079093DF018093DE01089590E0DA
:100E500080E00E942007089521E030E0A90102C04F
:100E6000440F551F8A95E2F7CA010E942007089592
:100E700021E030E002C0220F331F8A95E2F7809113
:100E8000DE019091DF01822B932B0E9420070895B1
:100E900021E030E002C0220F331F8A95E2F720954F
:100EA00030958091DE019091DF01822393230E948F
:100EB0002007089521E030E002C0220F331F8A95F9
:100EC000E2F78091DE019091DF01822793270E9453
:100ED000200708952091DE013091DF01822B932BB2
:100EE0000E94200708952091DE013091DF018223C6
:100EF00093230E94200708952091DE013091DF01A5
:100F0000822793270E94200708950895262F27708F
:100F100091E001C0990F2A95EAF723E0769567954D
:100F20002A95E1F7660F771F660F771FFA01E60F24
:100F3000F71F50E040E0682F70E08191DF011197CA
:100F40009B01042E02C0369527950A94E2F7217082
:100F500021952827292328272C934F5F5F4F443062
:100F6000510559F70895A82FA77023E09695879506
:100F70002A95E1F7880F991F880F991FFB01E80F49
:100F8000F91F50E040E080E0219130E00A2E02C0DD
:100F9000369527950A94E2F721703327042E01C075
:100FA000220F0A94EAF7822B4F5F5F4F44305105BE
:100FB00059F70895262F9C3070F4863060F4682F1E
:100FC00070E086E0989F600D711D11244AEB51E09E
:100FD000822F0E9486070895292F9C3068F486305E
:100FE00058F490E06AEB71E036E0239F800D911D8C
:100FF00011240E94B307089580E00895B0E0A0E0B6
:10100000E4E0F8E00C94A0247C010091DE01109152
:10101000DF018091E0019091E101082B192BCFE0D5
:10102000D0E0CC24C394D12CBC2EC6010C2E02C01F
:10103000880F991F0A94E2F780239123892B49F4A2
:10104000219790F7B12C8B2DCDB7DEB7E9E00C944A
:10105000BC24B7018C2F0E94F60E019789F3F3CFC1
:10106000CF93DF93EC010E94FE07BE010E94F60EB3
:10107000DF91CF9108951F93CF93DF93EB01909170
:10108000B901992339F0CB010E943008DF91CF914B
:101090001F910895882369F0CB010E94FE07182F45
:1010A000682FCE010E94DA07BE01812F0E94F60E42
:1010B000EDCFCB010E94EC07182FF6CF1F93CF93F3
:1010C000DF93C091E20117E08091E3018C1304C02B
:1010D000DF91CF911F910895D0E01C9FF0011D9FDB
:1010E000F00D1124EC51FE4F20813181428153815A
:1010F0006481758186810E94E6062196C770E4CFDF
:1011000020911C0230911D0240911E0250911F023D
:101110006091200270912102809122020E94E606D5
:101120000895CF93DF9380912202807F09F04DC014
:1011300080912102882309F448C0E091E201509196
:10114000E301C0911D02D0911C0260911E027091BA
:101150001F0247E05E17C9F18E2F90E0E49FF00177
:101160001124EC51FE4F2481222391F1489FF0017C
:10117000499FF00D1124DF01AC51BE4F11962C9107
:1011800011972C1325C02C912D1322C015962C914C
:10119000159721111DC012962D913C91261B370BDE
:1011A000283C3105A8F4809122028F7080618093E1
:1011B0002202E651FE4F80818F70806180838CE136
:1011C00092E00E9476060E945E08DF91CF9108951A
:1011D000FC013196E770BECF482F2091E20190913B
:1011E000E30157E0291302C080E0089530E0529FE8
:1011F000F001539FF00D1124EC51FE4F81816813D3
:1012000006C08081481303C085818111EECF2F5F16
:101210003F4F2770E7CFA4E1B0E0E1E1F9E00C94A3
:101220009D248C0186E0F801DE011F9601900D924D
:101230008A95E1F7F8018481E5809CE1A92E92E08E
:10124000B92E9091200291111FC08823D1F0EE2079
:10125000A9F0C8010E94CF06F82E882379F087E014
:10126000F801D50101900D928A95E1F7C5010E9420
:10127000A5030E9491080E9480085FC0C8010E94D7
:101280007606FF24F39459C0C080D1808280938079
:10129000F090210220911E0230911F02A401421BF6
:1012A000530BFF2009F4F9C0483C510508F0A7C0D2
:1012B000882309F442C090911D0280912202282FB8
:1012C000207F09F05CC09D1116C090911C02C912CC
:1012D00012C0E1104EC08F708061809322020E9484
:1012E00080088CE192E00E94760680912202F8014B
:1012F0008683F12C22C0E1103CC06D2D8C2D0E9404
:10130000EC086D2D8C2D0E94EC08E82E8111F1CF98
:10131000CF86D88A8F8598890E943008292F2295F8
:101320002F70243078F49F702230A8F09923B9F000
:10133000F8019681907F99F4FE2C8F2D6496ECE055
:101340000C94B9242A5F2F70223068F0C8010E94E3
:101350007606EF2CF1CF992311F0882369F3805E94
:10136000883050F3F3CF803F38F3815F833070F7DC
:10137000E3CF80912202816080932202BACF9D1137
:1013800013C090911C02C9120FC0E1100DC08683DA
:10139000C8010E94760687E0F801ACE1B2E0019056
:1013A0000D928A95E1F767CFC8010E94CF06882386
:1013B00009F464CFEE2009F461CF809122028032DB
:1013C00088F020911C0230911D02398728879B8666
:1013D0008A86909120029C871D868E87CE01089672
:1013E0000E94760687E0F801ACE1B2E001900D9230
:1013F0008A95E1F70E9491080E94800842CF90915F
:101400002202292F207FA1F4682D9A8A898AA601B9
:101410007A899E2D0E94DC068CE192E00E9476067D
:1014200087E0F50111928A95E9F70E94800861CF63
:10143000882309F482CF80911D028D1110C0809104
:101440001C02C8120CC0E1100AC09683C8010E9499
:10145000760687E0F50111928A95E9F76ECFC8010B
:101460000E94CF06882309F409CFEE2009F406CFA5
:1014700080912202803208F4B5CF20911C02309175
:101480001D023A8329839C828B82909120029D8346
:101490001E828F83CE010196A3CF483C5105B8F53B
:1014A000882309F4EECEFE2CEE2009F4E7CE8091DD
:1014B0001D028D111EC080911C02C8121AC080919D
:1014C000220280FD0DC0982F907F51F08683903FBF
:1014D00009F45ECF982F907F905F8F70892B57CF44
:1014E00087E0F801ACE1B2E001900D928A95E1F756
:1014F00024CFC8010E94CF06811174CF80912202AF
:10150000816080932202C8010E94760616CF682D62
:101510009A8A898AA6017A899E2D0E94DC0687E034
:10152000F50111928A95E9F7A6CEAEE0B0E0EBE9BD
:10153000FAE00C94A624288739874A875B876C8752
:101540007D878E87CE0108960E940B098823B1F013
:101550006C85662341F0288539854A855B857D85C4
:101560008E850E94E60617E08091E2019091E301EA
:1015700089133DC02E96E3E00C94C22487E0FE015F
:101580003896DE01119601900D928A95E1F78C85CF
:10159000882349F32091E30130E0C9010196877067
:1015A00099274091E2014817190699F097E0929F18
:1015B000D001939FB00D1124AC51BE4FFE01319666
:1015C00001900D929A95E1F78093E3010E945E08E5
:1015D000CACF0E94AF061092E3011092E20187E0A9
:1015E000ECE1F2E0DF011D928A95E9F7BCCF819F23
:1015F000C00111248C519E4F0E940B09882309F4CD
:10160000B9CFE091E2011E9FF0011124EC51FE4F91
:1016100020813181428153816481758186810E945C
:10162000E6068091E20190E0019687709927809309
:10163000E2019ACF80912B02869586958695089532
:1016400080912B028770089590912B02977081E012
:1016500009F480E00895809137020895909137024F
:10166000892B8093370208958095909137029823B3
:1016700090933702089510923702089590913602A0
:10168000892B809336020895809590913602982395
:1016900090933602089510923602089508950E949C
:1016A0004E0B089590912C02292F282331F080951C
:1016B000892380932C020E944F0B089508950E9465
:1016C0005E0B089590912D02292F2823281729F0C9
:1016D000982B90932D020E945F0B089590912D02FC
:1016E000292F282331F08095892380932D020E9491
:1016F0005F0B089580912D02882329F010922D020E
:1017000080E00E945F0B08950F931F93CF93DF93A8
:101710000091000110910101C091370280913602C1
:10172000C82B80912D02882331F0C82B0E942E1ADD
:1017300081110E947A0BF801C083C0910001D09101
:10174000010148E050E063E272E0CE010E94E22431
:10175000892B59F088E0FE01A3E2B2E001900D92DE
:101760008A95E1F7CE010E94CB19DF91CF911F91AD
:101770000F9108950E94840B089508950E94BD0B57
:10178000089590919B0292FF11C098E0899F90016B
:101790001124622B60932B020E94380780912B0248
:1017A0008695869586950E94BE0B08950E943807FF
:1017B000089510922B0280E00E94BE0B0895909134
:1017C0002B028095892380932B02282F277069F4A0
:1017D000891759F090919B0292FF07C086958695D4
:1017E00086950E9448070E94D90B089590919B020C
:1017F00092FB222720F9281769F080FB92F9909339
:101800009B0280919A0290919B020E94450C82E07B
:101810000E94DF0B089580919B0282FB882780F94C
:1018200091E089270E94F60B089581E00E94F60B53
:10183000089580E00E94F60B08956FEF7FEF90E02F
:1018400080E00E943425089590E080E00E94002509
:1018500021E0853E9E4F09F020E0822F089582E02E
:1018600090E00E94F824089583E090E00E94F8241C
:1018700090E00895682F83E090E00E941625089577
:1018800084E090E00E9400250895BC0184E090E08F
:101890000E9434250895AB01BC018FE090E00E94C6
:1018A00028250895AB01BC0183E190E00E94282522
:1018B000089560E070E0CB010E94520C089560E052
:1018C00070E0CB010E944B0C0E94590C0895A8E0D7
:1018D000B0E0EDE6FCE00C94A72465EE7EEF90E02E
:1018E00080E00E94342560E082E090E00E941625AE
:1018F00081E090E09093E1018093E0010E943A0C36
:1019000060E074E184E090E00E94342560E086E0CD
:1019100090E00E94162560E087E090E00E94162586
:1019200040E050E0BA0188E090E00E94282560E0A5
:1019300083E290E00E94162560E08CE090E00E9437
:10194000162560E08DE090E00E94162519821A822B
:101950001B821C821D821E821F82188648E050E076
:1019600067E170E0CE0101960E94062540E050E05C
:10197000BA018FE190E00E9428250E945F0C289612
:10198000E2E00C94C3240E94670C0895682F8EE057
:1019900090E00E9416250895A6E0B0E0E2EDFCE09C
:1019A0000C94A5240E94D21B8C0180913802909146
:1019B00039028017910781F019821A820E94D21B86
:1019C000682F49815A81792F80E090E00E94750349
:1019D00010933902009338022696E4E00C94C12457
:1019E0000E94121060934A0270934B0280934C0243
:1019F00090934D0260934602709347028093480291
:101A0000909349020895089508950E94030D089542
:101A100008950E94080D0E94050D089508950E94E2
:101A20000E0D089508950E94120D0E940F0D089545
:101A300081E008958CE290E10E94F6130E94040D6B
:101A40000E94090D08950E94F511089508950895C2
:101A500008950E94260D0E94270D0E94280D0895CA
:101A60000E94240C811102C00E94C30C0E942F0C02
:101A700080934E020E94400C90939B0280939A02A6
:101A80000E9419140E94340C0E94FC068091DE0111
:101A90009091DF010E941D0708950E94C91B0E94BA
:101AA000EC0F0E94FB110E944C110E94300D0E940D
:101AB0004F030E9468150E940D120E94130D089595
:101AC000A6E0B0E0E6E6FDE00C949E240E94180D2E
:101AD00081110CC00E94CC0C0E94F5110E941C18B0
:101AE0000E945C032696EBE00C94BA240E946F11CE
:101AF0008AE3A82E82E0B82E750110E0F70101916B
:101B00007F01812F0E9448101F5F1C3009F441C0E3
:101B10000817A1F380914E0281FD0E944E100E9491
:101B2000230DC82E10E099249394812F0E94481011
:101B3000082FF50181915F01081729F1F12CEE249E
:101B4000E394D02ED8268D2D8E21A9F0CC2099F0AB
:101B5000F9821A830E94D21B9C838B839D8291E021
:101B6000802F8E2109F490E049815A816B817C811C
:101B70008D810E947503F394EE0CF6E0FF12E3CF23
:101B8000F501319700831F5F1C3079F60E94F00C3D
:101B9000A3CF0813BFCF9ECF1F93CF93DF930E9495
:101BA000FB0EEC01C11580E5D807F0F5C11580E406
:101BB000D80708F09CC0C03ED10520F5CD3CD1052A
:101BC00008F082C0C83AD10578F4C53AD10508F0CA
:101BD00073C0C130D10519F1209709F1C430D10586
:101BE000F0F4D0E0C0E01BC0C33CD105D0F7C85A28
:101BF000D0E0CC0FDD1FC659DE4F0990D881C02D33
:101C0000D4640DC0C11580E2D80708F0D1C0C11559
:101C100081E0D80708F05AC0C83ED10510F7CE01C0
:101C2000DF91CF911F910895C03682E5D80718F54E
:101C3000C03482E5D80708F06BC0C03282E5D8070F
:101C400008F05FC0C11582E5D80708F497C02C2FB3
:101C50002695269580E2289F900111248C2F837071
:101C6000C1E0D0E002C0CC0FDD1F8A95E2F7C22BA5
:101C7000D32BDD68D4CFC03A82E5D80760F4C038F2
:101C800082E5D80708F459C0CF71D0E0DC2FCC270B
:101C9000C46FD06AC4CFC03C82E5D80708F462C0E4
:101CA000C03E82E5D80708F09CCFDC2FCC27CC279C
:101CB000DF71C06FD06AB3CFC55AD0E0C056DE4FD7
:101CC000C881D0E0D064ABCFD065A9CF8D2F0E9462
:101CD0009D0F182FCE0199270E94FB0EC12FD0E037
:101CE000DC2FCC27CC27DF71C82BD92B98CFCE0186
:101CF00099270E94FB0ECC27DF70C82BD92BD06A06
:101D00008ECFCF71D0E0DC2FCC27C16FD06A87CFC8
:101D10002C2F26952695277080E2289F900111246C
:101D20008C2F8370C1E0D0E002C0CC0FDD1F8A95FC
:101D3000E2F7C22BD32BDC6872CF2C2F2695269589
:101D4000277080E2289F900111248C2F8370C1E0BE
:101D5000D0E002C0CC0FDD1F8A95E2F7C22BD32B57
:101D6000DA685DCF8C2F8F710E949D0FC82FD0E055
:101D7000DC2FCC27CC27DF71D06251CF8C2F8F7115
:101D80000E949D0F55E0D695C7955A95E1F7CF7003
:101D9000D0E0DC2FCC27282F30E084FF05C044E0C2
:101DA000220F331F4A95E1F7C22BD32BD06937CFCF
:101DB0008D2F8F710E949D0F182FCE0199270E94A1
:101DC000FB0EC12FD0E0DC2FCC27CC27DF71C82B36
:101DD000D92BD2CF462F7C3030F4663020F4672FD9
:101DE0000E940402089590E080E008950E94EA0EA7
:101DF0000E94CC0D089582389105B9F1B0F4813379
:101E0000910509F47DC048F48932910509F46DC04B
:101E10008A32910509F47BC008958533910509F450
:101E20005FC08933910509F10895833E9105D9F189
:101E300038F4803E910529F1823E910579F10895AB
:101E4000863E9105D9F1873E910509F43EC0843E56
:101E5000910541F520919B0221FF24C080919A02B7
:101E600084FD19C087EE90E0089520919A022370B6
:101E700009F05AC020919B0223FF14C089E290E030
:101E8000089520919A0220FD38C030919B0230FFC6
:101E900009C024FF43C090E080E0089520919A0299
:101EA00022FDF7CF089520919A0222FD3AC0309189
:101EB0009B0230FD39C024FFF5CFEDCF20919A026F
:101EC00023FFF0CF24FDE7CFCDCF20919A0223FD51
:101ED0002EC030919B0231FFEECF84EE90E008954A
:101EE00020919A0225FFDECFC9CF20919A0225FDCD
:101EF00021C020919B0223FFD5CF89E390E0D2CF70
:101F000020919A0226FFCECF8AE290E00895209198
:101F10009A0226FFC7CF81E390E0089583EE90E018
:101F2000089582EE90E0089580EE90E0089586EEA8
:101F300090E0089585E390E0089590919A0292FFD1
:101F400010C041E0282F2471243009F040E031E036
:101F5000282F2871283009F030E0431711F02CE0C9
:101F6000822793FF10C041E0282F2471243109F00B
:101F700040E031E0282F2871283109F030E0431784
:101F800011F02CE0822730919B0230FF10C051E00D
:101F9000282F2171213009F050E041E0282F2871CD
:101FA000283009F040E0541711F029E0822731FF72
:101FB00010C041E0282F2171213109F040E031E0CB
:101FC000282F2871283109F030E0431711F029E05B
:101FD000822794FD877E089510929C0210929D02A4
:101FE00010929E0210929F020895CF92DF92EF927C
:101FF000FF926B017C010E94F51181110EC00E94BD
:10200000DE1BC61AD70AE80AF90AC0929C02D092CF
:102010009D02E0929E02F0929F02FF90EF90DF906F
:10202000CF9008950F931F930E94F511882329F0F4
:102030000E94DE1B1F910F9108950E94DE1B0091EC
:102040009C0210919D0220919E0230919F02600F90
:10205000711F821F931FEECF80E00895CF939C01E4
:10206000205E3245C1E02032310538F4FB01C581E4
:10207000C11103C08F710E9493028C2FCF910895DC
:1020800008950E944010089508950E9444100895F4
:10209000E82FF0E0E355FD4F80810895089580EA30
:1020A0008A95F1F7089500C008950E944F10089591
:1020B00008950E9458100895A6E0B0E0E2E6F0E12D
:1020C0000C94A3240E94F511F82E6091B902882384
:1020D00009F440C086E0E82E8E010F5F1F4FF80123
:1020E0008E2D11928A95E9F7862F90E0B8018355DD
:1020F0009D4F0E941B128823B9F08091A00290E0AE
:1021000046E050E0B80183559D4F0E94E22421E053
:1021100020934F02892B91F4F12C0E9445108F2DB2
:102120002696E6E00C94BF2480914F028823A1F309
:10213000F8011192EA94E9F710924F02A091A002DF
:10214000B0E0A355BD4F86E0F80101900D928A954D
:10215000E1F7E3CF70E063557D4F8091A00290E0FE
:1021600083559D4F0E94A2120E945910D8CFF89417
:10217000E82FE295EF70F0E031A1282F2F7081E079
:1021800090E001C0880F2A95EAF7982F9095932345
:1021900091A392A1892B82A3789408950F931F9302
:1021A000CF93DF93C9EAD1E089918F3F11F00E946C
:1021B000B71081E0CF3AD807B9F7C3EAD1E009EA0E
:1021C00011E089918F3F11F00E94B7100C171D0785
:1021D000C1F7DF91CF911F910F910895B0E0A0E07A
:1021E000E4EFF0E10C94A124EC01D62E062F10E0D0
:1021F000C80187559E4F7C01FC0180818F3F09F407
:1022000044C0F894E82FE295EF70F0E091A18F7050
:1022100021E030E001C0220F8A95EAF7892F822B56
:1022200081A382A12095282322A378940E94531091
:10223000E3EAF1E031E0C12C21912F3F59F1A22FC7
:10224000A295AF70B0E090968C9190E02F7002C094
:10225000959587952A95E2F780FD1CC0832FC82AA3
:10226000330F81E0E93AF80739F7F70180818F3FB2
:1022700011F00E94B71061E0C11001C060E08D2D27
:102280000E945510C00FD11FC882CDB7DEB7E8E05D
:102290000C94BD2480E0E3CF809102018091020183
:1022A00096E0811190E09093B90286E0891B8093BB
:1022B000A0020E94CE108CE0EDEAF2E0DF01982F40
:1022C0001D929A95E9F7E1EAF2E0DF011D928A9505
:1022D000E9F786E00E94AD110E9441100895ACE03C
:1022E000B0E0E5E7F1E10C94A4248E010F5F1F4FED
:1022F0008CE0F80111928A95E9F7F12C6F2DC80155
:102300000E94EE10F394F6E0FF12F8CF4CE050E09C
:10231000B80181EA92E00E94E22421E0009709F4EA
:1023200020E0892B41F08CE0F801A1EAB2E00190B5
:102330000D928A95E1F76091B90270E063557D4F87
:1023400046E081EA92E00E94AE11182F0E945C10D4
:10235000812B2C96E5E00C94C0240895B0E0A0E019
:10236000E4EBF1E10C94A1246C017B01042FC22F5A
:10237000222379F081E0809352020E94D21B909335
:1023800051028093500280E0CDB7DEB7E8E00C94B4
:10239000BD24D0915202DD23B1F38091500290917F
:1023A00051020E94501B059770F310E0A801B6017E
:1023B000C7010E94E224892B31F0A801B601C701B0
:1023C0000E94EF24CD2F109252028C2FDDCFCF939D
:1023D0000E947024C82F811102C00E946B248C2F90
:1023E000CF910895809156020895809155020895E5
:1023F0000E94F51108950E94E711809355020E94F2
:10240000F811809356020E94F211809302010E94FB
:10241000F51181110E94511208950E94F511811148
:1024200002C00E945412089581E0909157029A30A0
:1024300008F080E008950F931F93CF93DF93EC0192
:102440008B01809157028A30B8F4B801CE010E9406
:102450009F12C82F811122C0809157028F3FB9F47B
:102460000E94D21B90935402809353028C2FDF91D1
:10247000CF911F910F910895809153029091540232
:102480000E94501B843F914000F7C0E0EFCF8F5F68
:10249000809357028A3020F7C1E0E8CF10925702AC
:1024A000E5CF0E94821C08950E94851C0895B0E02B
:1024B000A0E0EDE5F2E10C94A2247901C82F880F89
:1024C000DD0B41155105A9F0FE0193E0EE0FFF1F52
:1024D0009A95E1F7ED5FFE4F81819281885A9D4F79
:1024E000208130E04217530708F49A01A9010E94A5
:1024F000EF24CE010E946E1DD82E8823D1F0011545
:102500001105B9F083E0CC0FDD1F8A95E1F7FE01DC
:10251000ED5FFE4F438150E00417150708F4A80152
:10252000CD5FDE4F6C817D81685A7D4FC7010E946F
:10253000EF248D2DCDB7DEB7E7E00C94BE240E94CA
:10254000911308950E94A8130895A4E0B0E0EBEA67
:10255000F2E10C94A5246091710270917202809155
:102560007302909174020E945A1B11E06436710547
:102570008105910518F10E9412106E5F7F4F8F4FF9
:102580009F4F69837A838B839C8310E000E030E067
:1025900020E044E050E0BE016F5F7F4F82E00E9488
:1025A0005712182F882351F00E94DE1B609371028E
:1025B000709372028093730290937402812F249619
:1025C000E4E00C94C124B0E0A0E0E9EEF2E10C9468
:1025D0009F247C015B016A010E94141201E010E05B
:1025E000882311F00AE010E0C1E0D0E0B501C70196
:1025F000F6010995811104C021960C171D072CF4D2
:10260000CDB7DEB7EAE00C94BB24CC9F9001CD9F00
:10261000300D300D112490E080E045E34A95F1F74C
:102620000000019682179307C1F7E0CFA7E0B0E062
:10263000ECE1F3E10C949F247B01C090AF01D090BA
:10264000B00101E010E09E01295F3F4F50E040E003
:1026500070E060E080E00E945712182F882309F490
:1026600048C056018FEFA81AB80A60916D027091A8
:102670006E0280916F02909170020E945A1B643624
:1026800071058105910568F106E010E09E012F5F5C
:102690003F4F50E040E070E060E081E00E94571260
:1026A000D82E66E070E0C5010E94691511E09F8197
:1026B000981310E01D2141F10E94DE1B60936D0212
:1026C00070936E0280936F029093700286E0FE0119
:1026D0003196A7E6B2E001900D928A95E1F711E0FC
:1026E00013C066E070E0C5010E9469159F818913DF
:1026F000CBCF86E0F6013196DE01119601900D9266
:102700008A95E1F71111E2CF86E0E7E6F2E0D70122
:1027100001900D928A95E1F7812F2796EAE00C94BB
:10272000BB240F931F93CF93DF93EC018B0146E102
:1027300053E10E94E312882331F045EA52E1B801E7
:10274000CE010E94E312DF91CF911F910F91089566
:102750000F931F93CF93DF93C091AF01D091B0013E
:10276000CE01019626E0FB01DC0101900D922A9535
:10277000E1F766E070E00E94691588836F817885D3
:1027800089859A8500916302109164022091650207
:1027900030916602601771078207930751F06093CA
:1027A00063027093640280936502909366020E94B4
:1027B000F50FDF91CF911F910F9108950E94600D49
:1027C00008950E946B1B0E94271F0E941A0D0E94F1
:1027D000411F0E944D0D0E944E1F0E94531F0E94D8
:1027E000DE130E946D1F0E94290DF7CF9093B30155
:1027F0008093B20108950E941D0C089580E00E940C
:102800004810817008950E946F112FEF86E791E0C4
:10281000215080409040E1F700C000000E946F11FD
:102820000E94FE13882321F00E94FB130E940E1CBD
:1028300008950E94031408958B3109F465C040F592
:102840008B3071F078F4863009F447C020F485307D
:1028500059F180E00895873009F448C08830C9F7FD
:1028600081E00895803109F45DC068F48E3089F705
:1028700090914E02892F8B7F92FF846080934E024D
:1028800082FD4CC0EDCF863159F3893149F3E1CF58
:102890008A3201F160F48732B1F020F48E31C8F24F
:1028A0008D514CC08932A9F60E94C102D9CF833420
:1028B00040F48A3308F041C0853329F0883381F22F
:1028C000C8CF833431F681E090E00E94FC060E947C
:1028D000AF06C6CF0E94C30CC3CF80914E02807F4B
:1028E00080934E0281E080937802089590914E0289
:1028F000892F8E7F90FF816080934E0280FDB0CF44
:10290000817F80934E02ACCF90914E02892F8D7FB4
:1029100091FF826080934E0281FFA2CF80914E0290
:102920008160EFCF90914E02892F877F93FF88605F
:1029300080934E0283FDF2CF93CF895321E030E0A4
:10294000A90102C0440F551F8A95E2F7CA01BDCF05
:1029500080E008950E94A8140895CF93C82F809115
:1029600078028130B9F0882331F08230A1F11092E1
:10297000780280E00DC00E942B0B8232D1F78C2FA1
:102980000E94A81481111BC08C2F0E941C148170FE
:10299000CF9108950E942B0B823289F38C2F0E94D5
:1029A000AA1481110AC0C43199F060F4CB3029F027
:1029B000C03169F782E08093780281E0E8CF81E05E
:1029C00090E0E5CFC93221F0C833B9F380E0DFCF22
:1029D00010927802FBCFC93209F440C0F0F4C43140
:1029E000E9F1A8F481E0C73099F68093220184E1EF
:1029F000809321018AE0809320018EE180931F0162
:102A000088E080931C0188E280931B0104C082EE61
:102A10008C0F8A3070F181E0BBCFC03509F450C013
:102A2000B8F48AE0CF34B9F7E0917502F0917602FC
:102A3000309789F32081082E000C990B820F911D8D
:102A40008F3F910509F00CF43FC08FEF8083E3CFF7
:102A5000C135C1F181E0C23539F39ACF8091770257
:102A60008823C9F2109277021092760210927502B2
:102A7000D2CFCD51C0937702C330C9F048F4C130F2
:102A800099F081E291E0C23051F010927702C3CF09
:102A9000C53099F078F08BE191E0C630B1F79093B2
:102AA000760280937502B7CF82E291E0F8CF80E2A0
:102AB00091E0F5CF8FE191E0F2CF8CE191E0EFCFA3
:102AC00086EFB2CF8FEFB0CF97FFC0CF1082A3CFEA
:102AD0000895FC01680F791F8FEF91E3E617F70760
:102AE00009F408952191822728E030E087FF06C08D
:102AF000880F892721503109C9F7F0CF880FFACF05
:102B0000CF93DF93EB0186319C4711F50E942B0B8D
:102B10009D81992399F08A7A91E009F490E090934D
:102B20007902811109C089E20E947E1A0E94BA0BC3
:102B300080E0DF91CF91089585E3F6CF809179020F
:102B4000811104C089E20E94861AF0CF85E3FBCF91
:102B500081E0EFCFCF93DF93EC01FB0185818823E8
:102B600009F4D2C09E0130572332310508F0B2C0BB
:102B70000E94400C90939B0280939A02FE01E150C8
:102B8000F047E232F10520F4E85AFA4D0C94912412
:102B900080919A02816080939A0293C080919B02F7
:102BA000886080939B028DC080919A028260F3CFEF
:102BB00080919A028460EFCF80919A028860EBCF77
:102BC00080919B028160EDCF80919B028260E9CF72
:102BD00080919A028061DFCF80919A028062DBCF80
:102BE00080919A028064D7CF0E94AF0680919A02AA
:102BF0008068D1CF80919A028C60CDCF80919B026A
:102C00008360CFCF80919A028E7FC5CF80919B0247
:102C1000877FC7CF80919A028D7FBDCF80919A0226
:102C20008B7FB9CF80919A02877FB5CF80919B022D
:102C30008E7FB7CF80919B028D7FB3CF80919A0218
:102C40008F7EA9CF80919A028F7DA5CF80919A0225
:102C50008F7BA1CF0E94AF0680919A028F779BCF86
:102C600080919A02837F97CF80919B028C7F99CF2E
:102C700080919A0282FB992790F921E0922790FB9C
:102C800082F990FB83F987CF80919B02982F9095D2
:102C900091708E7F892B90FB81F983CF90919A025E
:102CA000892F8F7B96FF806476CF0E94AF0690912C
:102CB0009A02892F97FB87F980586DCF81E00E9497
:102CC000C60C80919A0290919B020E94450C0E9432
:102CD000AF0680E0DF91CF91089580E0F0CF909132
:102CE0009A02892F8F7E94FF806155CF90919A022E
:102CF000892F8E7F90FF81604ECF90919B02892F0C
:102D0000877F93FF88604DCF81E0E4CF282F35EB9C
:102D10002303C001112497FF04C080589109892F13
:102D2000089580589F4FFBCF8091800280FF0DC097
:102D30006091200170E0660F771F6038710570F5B3
:102D40006115710569F1862F089581FF07C06091B3
:102D5000200184E0689FB0011124EFCF6091200131
:102D600082FD0AC080917F028823A9F020911F0173
:102D700060912001821710F088E0ECCF869FC0019F
:102D8000112433E0880F991F3A95E1F7622F70E024
:102D90000E947D24D2CF68E070E0D5CF8FE7089500
:102DA00081E008958091800280FF0CC060911C0139
:102DB00070E075956795759567956115710549F191
:102DC000862F089581FF06C060911C0170E0759503
:102DD0006795F3CF60911C0182FD0BC090917E023C
:102DE0009923A1F060911B0180911C01961738F086
:102DF000682F70E06038710500F38FE70895899FB0
:102E0000C001112470E00E947D24F4CF61E070E0E5
:102E1000D7CF81E008958D3C31F40E9494168195BE
:102E20008093840208958E3C19F40E949416F8CF82
:102E30008F3C31F40E94941681958093830208950B
:102E4000803D19F40E949416F8CF893D29F40E9420
:102E5000D2168093850208958A3D21F40E94D216ED
:102E60008195F7CF8B3D31F40E94D21681958093E6
:102E7000860208958C3D19F40E94D216F8CF9FE285
:102E8000980F983070F4815D990B21E030E001C01B
:102E9000220F8A95EAF780918202822B8093820228
:102EA00008958D3D31F4809180028160809380028D
:102EB00008958E3D21F4809180028260F7CF8F3D8E
:102EC000B9F7809180028460F1CF409183028D3CFC
:102ED00059F48091840287FF0DC010928402411141
:102EE0000BC010927F0208C08E3C81F48091840256
:102EF00018169CF3442381F08091850290918602FC
:102F0000892B09F05AC010927E0208958F3C49F433
:102F100047FFF0CF10928302809184028111ECCFA1
:102F2000E0CF803D19F41416ACF3E4CF9091850204
:102F3000893D29F41916F4F610928502DBCF8A3DFB
:102F400019F497FFD7CFF8CF909186028B3D29F4E3
:102F500097FFD0CF10928602CDCF8C3D19F4191671
:102F6000CCF3C8CF9FE2980F983090F4815D990B15
:102F700021E030E0B90102C0660F771F8A95E2F7C1
:102F8000CB01809590918202892380938202B2CFF7
:102F90008D3D31F4809180028E7F80938002AACF94
:102FA0008E3D21F4809180028D7FF7CF8F3D09F017
:102FB000A1CF809180028B7FF0CF08950E94D21B19
:102FC0009C019091830280918402982B21F0309390
:102FD0007D0220937C029091850280918602982B3D
:102FE00021F030937B0220937A0281E892E00E94E4
:102FF000D619089586E0E1E8F2E0DF011D928A9596
:10300000E9F710927F0210927E02109280020895DA
:10301000FC01828181110EC0838181110BC08481EA
:10302000811108C091E08581811101C090E0892F54
:103030008170089581E0FCCFA6E0B0E0E2E2F8E123
:103040000C94A62486E0E1E8F2E0DE0111960190FE
:103050000D928A95E1F710928302109284021092E9
:103060008502109286028B819C81892B89F0809148
:103070007C0290917D020E94501BAC0190917F02D6
:103080009923C9F1809121018417150608F440C0E5
:103090008D819E81892B91F080917A0290917B02A3
:1030A0000E94501BAC0190917E02992309F46AC0E2
:1030B00080911D018417150608F472C0BE016F5F70
:1030C0007F4F81E892E00E94991A811105C081E842
:1030D00092E00E94081881110E94DE1786E0FE012E
:1030E0003196A1E8B2E001900D928A95E1F726961B
:1030F000E3E00C94C224209122018AE0289F9001F1
:1031000011242417350720F69F5F90937F0202C099
:103110009F3FD1F71B81112359F00E9494169FEF16
:1031200011160CF491E0899F802D11248093830265
:103130001C81112359F00E9494169FEF11160CF474
:1031400091E0899F802D11248093840280918302D5
:10315000882309F49DCF10918402112309F498CF9C
:103160000E948616882351F080938302812F0E944B
:103170008616882329F0809384028ACF81E0F4CFD9
:1031800081E0F9CF20911E018AE0289F900111244F
:103190002417350708F092CF9F5F90937E0202C0FC
:1031A0009F3FD1F71D81112359F00E94D2169FEF46
:1031B00011160CF491E0899F802D112480938502D3
:1031C0001E81112359F00E94D2169FEF11160CF4A4
:1031D00091E0899F802D1124809386028091850241
:1031E000882309F46BCF10918602112309F466CF6E
:1031F0000E948616882351F080938502812F0E94B9
:103200008616882329F08093860258CF81E0F4CF78
:1032100081E0F9CF0F931F93CF93DF93C42FD22F69
:10322000FC0185818823C9F0409389020E94D21B4A
:10323000909388028093870280E28C0F883040F45C
:10324000C77081E001C0880FCA95EAF70E945A044E
:10325000DF91CF911F910F9108951091890214135E
:1032600032C080918702909188020E94501B883C56
:10327000910548F5C0E2CD0F1D17B9F080E2810F2E
:10328000883040F4177081E001C0880F1A95EAF782
:103290000E946104C83048F481E09D2F977001C0FE
:1032A000880F9A95EAF70E945A04802F0E945104D1
:1032B000C83070F6D77081E001C0880FDA95EAF760
:1032C0000E946104C5CF80E28C0F883008F6C77079
:1032D00081E001C0880FCA95EAF7F2CF0F93DB01B6
:1032E00088519C4787309105A0F5FC01E658FA4DBE
:1032F0000C94912406E221EE41EE6AE17CE7CD01D7
:103300000E940A1980E00F91089507E225EE45EE2C
:103310006BE17CE7F4CF06E221EE40EE68E17CE76A
:10332000EECF07E225EE44EE69E17CE7E8CF06E266
:1033300021EE42EE6CE17CE7E2CF07E225EE46EEBD
:103340006DE17CE7DCCF08E221E045EE6EE17CE751
:10335000D6CF15968C91882319F010928902D3CF7D
:1033600081E0D1CF9093900280938F0208950E94C4
:10337000F511811103C080918A020895E0918F02B6
:10338000F0919002309729F00190F081E02D09959D
:10339000089580E00895E0918F02F09190023097B7
:1033A00021F00280F381E02D09950895E0918F02CC
:1033B000F0919002309739F022E0DC012C930680E6
:1033C000F781E02D09950895A3E0B0E0EAEEF9E178
:1033D0000C94A72420918D0230918E022817390772
:1033E000A1F090938E0280938D02E0918F02F09174
:1033F0009002309751F023E029839B838A830084D5
:10340000F185E02DCE01019609952396E2E00C941A
:10341000C324A3E0B0E0EFE0FAE10C94A7242091EC
:103420008B0230918C0228173907A1F090938C02FF
:1034300080938B02E0918F02F0919002309751F0CF
:1034400024E029839B838A830084F185E02DCE01CB
:10345000019609952396E2E00C94C3244091000163
:10346000509101019A012E5F3F4F485F5F4F80E00E
:103470002417350709F40895F90191919F019923C3
:10348000B9F38F5FF5CF882371F02091000130915F
:103490000101F9013296285F3F4F9191981729F069
:1034A000E217F307D1F780E0089581E008959C01C9
:1034B000FC0132969FEF80E04191461751F09F3F0B
:1034C00019F4411101C0982F8F5F8630A9F79F3FF3
:1034D00009F40895290F311D97FD3A95F90162838A
:1034E0000895FC01329608962191261303C0DF014E
:1034F00011971C92E817F907B9F70895682F809182
:103500000001909101010E94571A0895682F80913F
:103510000001909101010E94711A0895E09100014B
:10352000F0910101329686E0DF011D928A95E9F75C
:103530000895DC01FB0111969C91119781819813EC
:1035400022C012968C911297882319F092818913C8
:103550001AC013968C911397882319F093818913BD
:1035600012C015968C911597882319F095818913AF
:103570000AC014969C91992321F081E0248129139B
:1035800003C080E001C081E08170089508950E9429
:10359000C61A089581110EC081E0809326016091C2
:1035A00023017091240180912501909126010E94B0
:1035B000C71A089582E0F1CF83E0809326016091DD
:1035C00023017091240180912501909126010E9490
:1035D000C71A08950E94CA1A089581E080932601AF
:1035E0006091230170912401809125019091260121
:1035F0000E94C71A08950E94ED1A089591E0811162
:1036000001C090E090932501609123017091240105
:1036100080912501909126010E94C71A08958091FA
:103620002501089580932401609123017091240164
:1036300080912501909126010E94C71A08958091DA
:103640002401089580932301609123017091240146
:1036500080912501909126010E94C71A08958091BA
:1036600023010895089508950E94331B0895089535
:1036700008950E94321B0895CF930E94371B0E9429
:103680006F110E94381BC0E08C2F0E9448108111DE
:1036900005C0CF5FCC30C1F7CF91089581E0FCCF5A
:1036A000CF93DF93EC010E94D21B8C1B9D0BDF910B
:1036B000CF910895CF92DF92EF92FF926B017C0140
:1036C0000E94DE1B6C197D098E099F09FF90EF9007
:1036D000DF90CF90089585B7806885BF85B78068F3
:1036E00085BF08951F921FB61F9211248F939F9339
:1036F000AF93BF9380919102811113C08091BA0260
:103700009091BB02A091BC02B091BD024196A11D57
:10371000B11D8093BA029093BB02A093BC02B093F8
:10372000BD02BF91AF919F918F911F901FBE1F90BF
:1037300018958091C202843031F10E942F031092BB
:10374000910288E190E020E40FB6F894A895809368
:1037500060000FBE2093600083B7817F846083BFC9
:1037600083B7816083BF7894889583B78E7F83BF4A
:103770000FB6F894A89580916000886180936000EE
:10378000109260000FBE08950E94AF060E9436039B
:10379000089582E084BD93E095BD9AEF97BD809334
:1037A0006E0008952FB7F8948091BA029091BB02F1
:1037B000A091BC02B091BD022FBF08952FB7F8941D
:1037C0006091BA027091BB028091BC029091BD02DF
:1037D0002FBF089578941F921FB61F9211248F93C4
:1037E0009F93AF93BF938091BA029091BB02A09137
:1037F000BC02B091BD020196A11DB11D8093BA0219
:103800009093BB02A093BC02B093BD02BF91AF9155
:103810009F918F911F901FBE1F90189587E797E784
:10382000909301088093000888E19AE00FB6F8941D
:10383000A895809360000FBE90936000FFCF88E151
:103840009AE00FB6F894A895809360000FBE90930D
:103850006000FFCF8EE1489B02C08150E1F7489B9A
:10386000FECF0895589880E28A95F1F7589A089506
:10387000FC013BE03A95F1F798E020E080E031E090
:1038800040E14A95F1F7880F489B02C081602327E9
:1038900042E04A95F1F7000040E14A95F1F7915076
:1038A00079F790E19A95F1F799B132E03A95F1F70D
:1038B000000040E14A95F1F7917092272081920F24
:1038C00090830895A1E0B0E0E8E6FCE10C94A32425
:1038D00019828C017C01E60EF11C0E151F0541F4C6
:1038E00081E09981911180E02196E6E00C94BF245B
:1038F0000E942A1CCE0101960E94381CF801819377
:103900008F01EBCF509A589A08955098589AE89A98
:10391000E9E6F0E080818C7F808308956150770B29
:1039200091E001C0990F6A95EAF720E031E091112A
:1039300008C0222391F0589A80E28A95F1F75898AE
:103940000895492F482339F0589A232740E24A9591
:10395000F1F79695ECCF5898F9CF5898EDCFFF92A4
:103960000F931F93CF93DF93EC018C01060F111D72
:10397000C017D10729F4CDB7DEB7E5E00C94C02419
:10398000F9900E94321C68E08F2D0E948E1CF0CFAF
:103990001F920F920FB60F9211240F931F932F9324
:1039A0003F934F935F936F937F938F939F93AF93C7
:1039B000BF93EF93FF93CF93DF930F92CDB7DEB713
:1039C00019820E942A1CCE0101960E94381C082FE1
:1039D000069506950695282F22952570902F9570AF
:1039E000290F922F937026952695920F98279770FE
:1039F0008981982B09F05CC0043008F059C080E13F
:103A00008A95F1F7589A509A82E08A95F1F700C0AA
:103A1000589888E0089F80011124D801AD5FBE4FFF
:103A20001696ED91FC9117973097A9F06091AF0130
:103A30007091B00114962D913C911597260F371F68
:103A400011968D919C911297680F791F13964C9146
:103A500013978C910995F801ED5FFE4F6381662302
:103A600051F02091AF013091B00184819581820F96
:103A7000931F0E94AF1C0E94321C80E18A95F1F7CF
:103A800058985098589A80E18A95F1F7F801ED5FBF
:103A9000FE4F6081662351F02091AF013091B0015B
:103AA00081819281820F931F0E94621C0E942A1CB6
:103AB0000F90DF91CF91FF91EF91BF91AF919F91C7
:103AC0008F917F916F915F914F913F912F911F91B6
:103AD0000F910F900FBE0F901F9018950F931F938B
:103AE000CF93DF93EC0104970CF04CC0F894509AFC
:103AF000589885E08A95F1F700009C2F969595706F
:103B00008C2F8570980F892F83709695969523E05A
:103B1000CC0FDD1F2A95E1F7980F8E01092B0E942B
:103B2000321C00C068E0802F0E948E1C80E18A95C4
:103B3000F1F75098589A489B1EC087E090E048994A
:103B40001CC0FE01ED5FFE4F63816623F9F02091FA
:103B5000AF013091B00184819581820F931F0E9443
:103B6000621C811113C0509A589A7894DF91CF91BA
:103B70001F910F91089500C0DECF019729F4509A4C
:103B8000589A789480E0F2CF00C0D9CF0E942A1CC6
:103B900080E28A95F1F75898509A80E18A95F1F77A
:103BA000CD5FDE4F6881662351F02091AF013091E7
:103BB000B00189819A81820F931F0E94AF1C0E94DD
:103BC000321C789481E0D2CF08959B01BA01909184
:103BD000C2029430E9F48F708093E9009FEF8091E6
:103BE000E800915085FD06C085ED8A95F1F700004B
:103BF0009111F5CF8091E80085FF0AC050E040E0C8
:103C0000C9010E94E41F8091E8008E778093E8004C
:103C1000089543E050E0BC0182E00E94E51D089554
:103C200046E050E0BC0182E00E94E51D0895CF937C
:103C3000DF93EC010E940F1B48E050E0BE0181E0E1
:103C40000E94E51D88E0FE01A2E9B2E001900D921C
:103C50008A95E1F7DF91CF9108958091C10281119A
:103C600009C00E9474210E94D1218091E2008460E9
:103C70008093E20008951092C10208950E94ED1A07
:103C800081E00E94FE1A08956091BE0281E06111F8
:103C900001C080E00E94DC1A08959091C20281E088
:103CA000943009F080E06091BE020E94EA1A089503
:103CB00042E061EC81E00E94F02042E261EC82E0AF
:103CC0000E94F0209091C20281E0943009F080E0DF
:103CD0006091BE020E94CA1A08958091C402833086
:103CE00009F461C030F48130D1F1823009F49EC012
:103CF00008958A3009F48AC08B3009F46FC0893086
:103D000009F050C08091C302813209F04BC080910C
:103D1000C7029091C802029708F044C08091E80061
:103D2000877F8093E8008091E80082FF37C0909100
:103D3000F3008091F200029731F48091F10081301C
:103D400011F0863021F48091F1000E94121B8091C5
:103D5000E8008B778093E8000E94242123C08091A3
:103D6000C302813AF9F48091E800877F8093E800EC
:103D70008091C7029091C802892B61F468E082E9C2
:103D800092E070E00E9433208091E8008B7780936E
:103D9000E800089560E090E080E0F3CF8091C202F7
:103DA0008111C1CF08958091C302813AD9F78091E2
:103DB000C7029091C802892BA9F78091E800877FFC
:103DC0008093E8008091E80080FFFCCF0E940F1BE9
:103DD0008093F1008091E8008E77BCCF8091C30280
:103DE000813201F78091C7029091C802892BD1F6E8
:103DF0008091E800877F8093E8000E9424218091D1
:103E0000C5020E94FE1A0E94AF0608958091C30267
:103E1000813241F68091E800877F8093E8000E941C
:103E200024218091C6020E94221B08958091C30222
:103E3000813A09F0B7CF8091E800877F8093E8004E
:103E40008091E80080FFFCCF0E942F1BC1CF84B778
:103E5000877F84BF0FB6F894A89580916000886131
:103E600080936000109260000FBE80E890E00FB673
:103E7000F89480936100909361000FBE0E94FB1A3A
:103E800008950E9474210E94D121E2EEF0E0808129
:103E90008460808378940E945024089587E291E0A2
:103EA0000E94B21908958091C202853031F4809148
:103EB000C202853019F00E94C41B08950E94991B0C
:103EC0000E943C1B882399F38091C002882379F3D8
:103ED0000E94CE1F0E94AF06EACF08959A0140913A
:103EE000C9025091CA020E94761F0895492F552792
:103EF0004330510519F168F44130510509F444C0CB
:103F00004230510509F445C090E080E050E040E0C7
:103F100025C04132510549F142325105A9F784E4E7
:103F200090E04EE453E061157105C1F08BE790E03D
:103F300043ED52E06130710589F0E6CF9927813079
:103F4000910581F0009729F00297F1F6ECE5F2E097
:103F500002C0E2E8F2E0849190E0AF01F901518300
:103F600040830895E2E7F2E0F6CF89E090E048E987
:103F700052E06115710591F389E090E041EB52E068
:103F80006130710559F3C0CF82E190E041EC52E01D
:103F9000E5CF8BE390E046E852E0E0CF80E189BDD9
:103FA00082E189BD09B400FEFDCF8091D8008F7DEC
:103FB0008093D8008091E00082608093E00080913F
:103FC000E00081FDFCCF0895AF92BF92CF92DF92C7
:103FD000FF920F931F93CF93DF936C01EB018A0144
:103FE0000E944321F82E811123C00115110539F0DB
:103FF000F80180819181C81BD90BC80ED91EB12C44
:10400000A12C2097A9F08091E80085FD22C0809125
:10401000E8008E778093E80001151105A1F0F80102
:1040200080819181A80EB91EB182A08285E0F82E10
:104030008F2DDF91CF911F910F91FF90DF90CF9047
:10404000BF90AF9008950E9443218823D1F2F82EAB
:10405000EFCFF60181916F018093F1002197FFEF7F
:10406000AF1ABF0ACECFFC018091C9029091CA025B
:1040700086179707A0F06115710529F49091E80063
:104080009E779093E80090E06115710551F49111CD
:1040900008C08091E80082FF34C080E00895BC0130
:1040A000F2CF8091C2028823C1F18530C1F18091A5
:1040B000E80083FD30C08091E80082FDEACF809166
:1040C000E80080FFE1CF8091F3002091F200382FCB
:1040D0006115710519F02830310558F091E028304C
:1040E000310509F090E02091E8002E772093E80058
:1040F000CBCF81918093F100615071092F5F3F4FC9
:10410000E7CF8091C202882341F0853041F0809151
:10411000E80083FFBECF81E0089582E0089583E048
:104120000895FC018091C9029091CA0286179707F1
:10413000A0F06115710529F48091E8008E778093D5
:10414000E80090E06115710551F4911108C080916B
:10415000E80082FF35C080E00895BC01F2CF809175
:10416000C2028823C9F18530C9F18091E80083FD3E
:1041700031C08091E80082FDEACF8091E80080FFA5
:10418000E1CF8091F3002091F200382F6115710585
:1041900019F02830310558F091E02830310509F048
:1041A00090E08091E8008E778093E800CBCF8491F7
:1041B0008093F1003196615071092F5F3F4FE6CF38
:1041C0008091C202882341F0853041F08091E8005F
:1041D00083FFBDCF81E0089582E0089583E00895D4
:1041E000982F973028F08F708093E90081E0089530
:1041F0009093E900242F762F50E0981731F07091BA
:10420000EC002091ED005091F00021FD02C09F5F75
:10421000E8CF3091EB003E7F3093EB003091ED0022
:104220003D7F3093ED003091EB0031603093EB0037
:104230007093EC002093ED005093F0002091EE007D
:1042400027FDE5CF80E008958091C30287FF13C06A
:104250008091E80082FF06C08091E8008B77809310
:10426000E80004C08091C2028111F2CF08958091CC
:10427000C2028823D9F38091E80080FFF8CF8091B3
:10428000E8008E77ECCF2091E4003091E50095E6D0
:10429000A9012091EC00822F817020FF06C080913F
:1042A000E80080FF06C080E008952091E80022FD2C
:1042B0001AC08091C202882389F0853089F08091EC
:1042C000EB0085FD0FC02091E4003091E50042171E
:1042D0005307F9F29150E1F684E0089582E00895E1
:1042E00083E0089581E008950E94E3210E94EB217C
:1042F000E0EEF0E0808181608083E8EDF0E0808195
:104300008F77808319BCA7EDB0E08C918E7F8C9362
:1043100080818F7E80831092C10208950F931F9336
:10432000CF93DF930E94E3210E94EB21C8EDD0E000
:1043300088818F77888388818068888388818F7D52
:10434000888319BC1092C2021092BE021092C00261
:104350001092BF0200EE10E0F80180818B7F808315
:1043600088818160888342E060E080E00E94F020E4
:10437000E1EEF0E080818E7F8083E2EEF0E08081EC
:1043800081608083808188608083F80180818E7F56
:104390008083888180618883DF91CF911F910F9105
:1043A0000895E8EDF0E080818F7E8083E7EDF0E016
:1043B00080818160808384E082BF81E08093C1023C
:1043C0000E948E210895E8EDF0E080818E7F808349
:1043D0001092E20008951092DA001092E100089520
:1043E0001F920F920FB60F9211242F933F934F936A
:1043F0005F936F937F938F939F93AF93BF93EF934D
:10440000FF938091E10082FF0BC08091E20082FF68
:1044100007C08091E1008B7F8093E1000E944F24D0
:104420008091DA0080FF19C08091D80080FF15C00C
:104430008091DA008E7F8093DA008091D90080FF2E
:1044400096C080E189BD82E189BD09B400FEFDCF3F
:1044500081E08093C2020E942D1E8091E10080FFC6
:1044600019C08091E20080FF15C08091E2008E7F2C
:104470008093E2008091E20080618093E20080916D
:10448000D80080628093D80019BC85E08093C20276
:104490000E94441E8091E10084FF2BC08091E200C5
:1044A00084FF27C080E189BD82E189BD89B5982F4D
:1044B000917080FFFBCF8091D8008F7D8093D800D2
:1044C0008091E1008F7E8093E1008091E2008F7EF9
:1044D0008093E2008091E20081608093E20080910D
:1044E000BE02882309F449C084E08093C2020E947E
:1044F0004D1E8091E10083FF29C08091E20083FF7F
:1045000025C08091E100877F8093E10082E0809365
:10451000C2021092BE028091E1008E7F8093E10082
:104520008091E2008E7F8093E2008091E2008061C2
:104530008093E20042E060E080E00E94F020809101
:10454000F00088608093F0000E943E1EFF91EF9182
:10455000BF91AF919F918F917F916F915F914F919B
:104560003F912F910F900FBE0F901F90189519BC7F
:104570001092C2020E943B1E70CF8091E30087FD23
:1045800093E09093C202B3CF1F920F920FB60F9297
:1045900011242F933F934F935F936F937F938F9348
:1045A0009F93AF93BF93CF93DF93EF93FF93D091FC
:1045B000E900DF708091EC00C82FC17080FDC0E879
:1045C0001092E9008091F000877F8093F00078944A
:1045D0000E9408231092E9008091F0008860809387
:1045E000F000CD2BCF70C093E900FF91EF91DF91E8
:1045F000CF91BF91AF919F918F917F916F915F917B
:104600004F913F912F910F900FBE0F901F901895D3
:10461000AAE2B0E0EEE0F3E20C94A62483EC92E090
:104620002091F100FC012193CF01F2E08B3C9F0728
:10463000B9F70E946D1E8091E80083FF1EC1809132
:10464000C3029091C4029A3008F017C1E92FF0E03C
:10465000EF57FA4D0C949124803899F0823809F084
:104660000CC18091C7028F70873008F006C180931B
:10467000E9008091EB0085FB882780F91092E90022
:1046800006C08091BF029091C0029111826090910A
:10469000E800977F9093E8008093F1001092F1007A
:1046A0008091E8008E77E5C0882309F4D3C082307A
:1046B00009F0E3C08091C5028111D6C08091C70284
:1046C0008F702FEF280F263008F0D7C08093E900B5
:1046D0002091EB0020FFC8C0933031F48091EB00B3
:1046E00080628093EB00C0C09091EB00906190934A
:1046F000EB0021E030E001C0220F8A95EAF7209319
:10470000EA001092EA008091EB008860EACF811104
:10471000B4C01091C5021F778091E3008078812B8F
:104720008093E3008091E800877F8093E8000E94F7
:1047300024218091E80080FFFCCF8091E300806815
:104740008093E30082E0111183E08093C20295C060
:104750008058823008F091C08091C5029091C602C5
:104760008C3D23E09207A1F583E08A838AE2898366
:104770004FB7F894DE01139620E03EE051E2E32FBC
:10478000F0E050935700E49120FF03C0E295EF70F2
:104790003F5FEF708E2F90E0EA30C0F0C7968D93A8
:1047A0009D932F5F243159F74FBF8091E800877F99
:1047B0008093E8006AE270E0CE0101960E94332007
:1047C0008091E8008B778093E80057C0C096E7CFD0
:1047D0006091C7027091C802AE014F5F5F4F0E94A7
:1047E0006E1FBC01892B09F448C09091E800977FA7
:1047F0009093E80089819A810E949120E1CF8038CE
:10480000E1F58091E800877F8093E8008091BE0207
:104810008093F10045CF811130C09091C502923054
:1048200060F58091E800877F8093E8009093BE0256
:104830000E9424218091BE02882311F084E005C0EB
:104840008091E30087FDFACF81E08093C2020E944D
:10485000581E13C08091C502813079F481E09330F5
:1048600009F080E08093C0021092E9008091E80096
:10487000877F8093E8000E9424218091E80083FFD5
:104880000AC08091E800877F8093E8008091EB0068
:1048900080628093EB00AA96E3E00C94C224089512
:1048A000CF938091C2028823A1F0C091E900CF701C
:1048B0009091EC00892F817090FD80E8C82B1092B8
:1048C000E9008091E80083FD0E940823CF70C09327
:1048D000E900CF9108950E9474211092C2020895B8
:1048E000E8EDF0E08081806180838AE18A95F1F7CC
:1048F00000C08091D9008170089597FB072E16F4AF
:10490000009407D077FD09D00E94CE2407FC05D083
:104910003EF4909581959F4F0895709561957F4FD6
:104920000895EE0FFF1F0590F491E02D09942F924A
:104930003F924F925F926F927F928F929F92AF922F
:10494000BF92CF92DF92EF92FF920F931F93CF937C
:10495000DF93CDB7DEB7CA1BDB0B0FB6F894DEBF13
:104960000FBECDBF09942A88398848885F846E8439
:104970007D848C849B84AA84B984C884DF80EE8083
:10498000FD800C811B81AA81B981CE0FD11D0FB68C
:10499000F894DEBF0FBECDBFED010895AA1BBB1B6F
:1049A00051E107C0AA1FBB1FA617B70710F0A61B2F
:1049B000B70B881F991F5A95A9F780959095BC0150
:1049C000CD010895FB01DC0104C08D910190801997
:1049D00021F441505040C8F7881B990B0895FB0102
:1049E000DC0102C001900D9241505040D8F708956B
:1049F000F999FECF92BD81BDF89A992780B50895A7
:104A0000A8E1B0E042E050E00C943C25DC01A40FAA
:104A1000B51F4150504048F0CB01840F951F2E9197
:104A20000E94172541505040D0F70895262FF9993C
:104A3000FECF92BD81BDF89A019700B4021639F0FD
:104A40001FBA20BD0FB6F894FA9AF99A0FBE0895CE
:104A50000396272F0E9417250E941625252F0E94B6
:104A60001725242F0C9417250196272F0E94172510
:104A70000C941625DC01CB01FC01F999FECF06C090
:104A8000F2BDE1BDF89A319600B40D92415050400C
:104A9000B8F70895F894FFCFA904A904E704E70440
:104AA0004B056705D804D8046C05DD05EC05EC055D
:104AB000021676160A16D415D8150E16DC1512161F
:104AC0001E16E8156F16EC152216F01526164E1652
:104AD000F4152A165516FA1530163816E01516165E
:104AE000E4151A16FE15341644165E166D16CE150C
:104AF00006167D168B1991197A19851997199D1922
:104B0000A3192C2354233D2454233D248723A82375
:064B10003D24FF230B24ED
:104B16002E02010000000100000000000000060156
:104B26000000000407000000000000280850011ED5
:104B36000A1401000001001F1B171EE41D101E09A8
:104B46001EE200E900EA00B500B600B700CD00831A
:104B560001CC008A0192019401210223022402253C
:104B660002260227022A02B300B4006F0070009FDB
:104B760001CB019F02A002818283E200E900EA00E4
:104B8600B500B600B700CD008301CC008A019201C2
:104B960094012102230224022502260227022A0268
:104BA600B300B4006F0070009F01CB019F02A0020A
:104BB600818283946697C63435F6F7313332365898
:024BC6000200EB
:00000001FF
